{
  "contractName": "Editor",
  "abi": [
    {
      "anonymous": false,
      "inputs": [
        {
          "indexed": false,
          "internalType": "uint256",
          "name": "articleId",
          "type": "uint256"
        },
        {
          "indexed": false,
          "internalType": "uint256",
          "name": "timeUpdated",
          "type": "uint256"
        },
        {
          "indexed": true,
          "internalType": "address",
          "name": "authorAddress",
          "type": "address"
        },
        {
          "indexed": true,
          "internalType": "address",
          "name": "publicationAddress",
          "type": "address"
        }
      ],
      "name": "ArticleEdited",
      "type": "event"
    },
    {
      "anonymous": false,
      "inputs": [
        {
          "indexed": false,
          "internalType": "uint256",
          "name": "articleId",
          "type": "uint256"
        },
        {
          "indexed": false,
          "internalType": "uint256",
          "name": "timePosted",
          "type": "uint256"
        },
        {
          "indexed": true,
          "internalType": "address",
          "name": "authoraddress",
          "type": "address"
        },
        {
          "indexed": true,
          "internalType": "address",
          "name": "publicationAddress",
          "type": "address"
        }
      ],
      "name": "ArticlePosted",
      "type": "event"
    },
    {
      "anonymous": false,
      "inputs": [
        {
          "indexed": true,
          "internalType": "address",
          "name": "previousOwner",
          "type": "address"
        },
        {
          "indexed": true,
          "internalType": "address",
          "name": "newOwner",
          "type": "address"
        }
      ],
      "name": "OwnershipTransferred",
      "type": "event"
    },
    {
      "anonymous": false,
      "inputs": [
        {
          "indexed": false,
          "internalType": "uint256",
          "name": "publicationId",
          "type": "uint256"
        },
        {
          "indexed": false,
          "internalType": "uint256",
          "name": "timeCreated",
          "type": "uint256"
        },
        {
          "indexed": true,
          "internalType": "address",
          "name": "publicationAddress",
          "type": "address"
        }
      ],
      "name": "publicationCreated",
      "type": "event"
    },
    {
      "inputs": [
        {
          "internalType": "uint256",
          "name": "",
          "type": "uint256"
        }
      ],
      "name": "articles",
      "outputs": [
        {
          "internalType": "string",
          "name": "articleName",
          "type": "string"
        },
        {
          "internalType": "address",
          "name": "authorAddress",
          "type": "address"
        },
        {
          "internalType": "address",
          "name": "publicationAddress",
          "type": "address"
        },
        {
          "internalType": "uint256",
          "name": "timePosted",
          "type": "uint256"
        },
        {
          "internalType": "uint256",
          "name": "timeUpdated",
          "type": "uint256"
        }
      ],
      "stateMutability": "view",
      "type": "function",
      "constant": true
    },
    {
      "inputs": [],
      "name": "owner",
      "outputs": [
        {
          "internalType": "address",
          "name": "",
          "type": "address"
        }
      ],
      "stateMutability": "view",
      "type": "function",
      "constant": true
    },
    {
      "inputs": [
        {
          "internalType": "uint256",
          "name": "",
          "type": "uint256"
        }
      ],
      "name": "publications",
      "outputs": [
        {
          "internalType": "address",
          "name": "",
          "type": "address"
        }
      ],
      "stateMutability": "view",
      "type": "function",
      "constant": true
    },
    {
      "inputs": [],
      "name": "renounceOwnership",
      "outputs": [],
      "stateMutability": "nonpayable",
      "type": "function"
    },
    {
      "inputs": [
        {
          "internalType": "address",
          "name": "newOwner",
          "type": "address"
        }
      ],
      "name": "transferOwnership",
      "outputs": [],
      "stateMutability": "nonpayable",
      "type": "function"
    },
    {
      "inputs": [
        {
          "internalType": "address",
          "name": "_authorAddress",
          "type": "address"
        }
      ],
      "name": "addAuthorToPublication",
      "outputs": [],
      "stateMutability": "nonpayable",
      "type": "function"
    },
    {
      "inputs": [],
      "name": "createPublication",
      "outputs": [],
      "stateMutability": "nonpayable",
      "type": "function"
    },
    {
      "inputs": [
        {
          "internalType": "bytes32",
          "name": "_articleHash",
          "type": "bytes32"
        },
        {
          "internalType": "string",
          "name": "_articleName",
          "type": "string"
        },
        {
          "internalType": "address",
          "name": "_publicationAddress",
          "type": "address"
        }
      ],
      "name": "postArticle",
      "outputs": [],
      "stateMutability": "nonpayable",
      "type": "function"
    },
    {
      "inputs": [
        {
          "internalType": "address",
          "name": "_authorAddress",
          "type": "address"
        }
      ],
      "name": "removeAuthorFromPublication",
      "outputs": [
        {
          "internalType": "bool",
          "name": "",
          "type": "bool"
        }
      ],
      "stateMutability": "nonpayable",
      "type": "function"
    },
    {
      "inputs": [
        {
          "internalType": "uint256",
          "name": "_articleId",
          "type": "uint256"
        },
        {
          "internalType": "bytes32",
          "name": "_articleHash",
          "type": "bytes32"
        }
      ],
      "name": "updateArticle",
      "outputs": [],
      "stateMutability": "nonpayable",
      "type": "function"
    },
    {
      "inputs": [],
      "name": "isRegisteredPublisher",
      "outputs": [
        {
          "internalType": "bool",
          "name": "",
          "type": "bool"
        }
      ],
      "stateMutability": "view",
      "type": "function",
      "constant": true
    }
  ],
  "bytecode": "0x608060405234801561001057600080fd5b5061002d61002261003260201b60201c565b61003a60201b60201c565b6100fe565b600033905090565b60008060009054906101000a900473ffffffffffffffffffffffffffffffffffffffff169050816000806101000a81548173ffffffffffffffffffffffffffffffffffffffff021916908373ffffffffffffffffffffffffffffffffffffffff1602179055508173ffffffffffffffffffffffffffffffffffffffff168173ffffffffffffffffffffffffffffffffffffffff167f8be0079c531659141344cd1fd0a4f28419497f9722a3daafe3b4186f6b6457e060405160405180910390a35050565b6121da806200010e6000396000f3fe608060405234801561001057600080fd5b50600436106100a85760003560e01c80638da5cb5b116100715780638da5cb5b14610129578063dca3e34614610147578063dde900bf14610177578063edcfafe614610193578063f2fde38b146101c7578063f724b0b2146101e3576100a8565b8062fd6bf7146100ad5780631fd5bbab146100b7578063715018a6146100e75780637ae9637b146100f15780638a54f3d11461010d575b600080fd5b6100b5610201565b005b6100d160048036038101906100cc919061180a565b61043d565b6040516100de91906119f5565b60405180910390f35b6100ef61047c565b005b61010b6004803603810190610106919061176e565b610504565b005b6101276004803603810190610122919061179b565b6107a9565b005b610131610db8565b60405161013e91906119f5565b60405180910390f35b610161600480360381019061015c919061176e565b610de1565b60405161016e9190611a10565b60405180910390f35b610191600480360381019061018c9190611837565b61102e565b005b6101ad60048036038101906101a8919061180a565b611249565b6040516101be959493929190611a2b565b60405180910390f35b6101e160048036038101906101dc919061176e565b611357565b005b6101eb61144f565b6040516101f89190611a10565b60405180910390f35b3360006001905060005b6002805490508110156102a2576002818154811061022c5761022b611df2565b5b9060005260206000200160009054906101000a900473ffffffffffffffffffffffffffffffffffffffff1673ffffffffffffffffffffffffffffffffffffffff168373ffffffffffffffffffffffffffffffffffffffff16141561028f57600091505b808061029a90611d4b565b91505061020b565b50806102e3576040517f08c379a00000000000000000000000000000000000000000000000000000000081526004016102da90611b05565b60405180910390fd5b6000600460003373ffffffffffffffffffffffffffffffffffffffff1673ffffffffffffffffffffffffffffffffffffffff1681526020019081526020016000208054905014610368576040517f08c379a000000000000000000000000000000000000000000000000000000000815260040161035f90611ae5565b60405180910390fd5b6002339080600181540180825580915050600190039060005260206000200160009091909190916101000a81548173ffffffffffffffffffffffffffffffffffffffff021916908373ffffffffffffffffffffffffffffffffffffffff16021790555060006103e660016002805490506114fc90919063ffffffff16565b90503373ffffffffffffffffffffffffffffffffffffffff167fdf888d7ef5027a4c5a75d67f940cba733410661403f7fdce05bcc7cdf8f725528242604051610430929190611b85565b60405180910390a2505050565b6002818154811061044d57600080fd5b906000526020600020016000915054906101000a900473ffffffffffffffffffffffffffffffffffffffff1681565b610484611512565b73ffffffffffffffffffffffffffffffffffffffff166104a2610db8565b73ffffffffffffffffffffffffffffffffffffffff16146104f8576040517f08c379a00000000000000000000000000000000000000000000000000000000081526004016104ef90611b45565b60405180910390fd5b610502600061151a565b565b3360008073ffffffffffffffffffffffffffffffffffffffff168273ffffffffffffffffffffffffffffffffffffffff16141561054457600190506105e0565b60005b6002805490508110156105de576002818154811061056857610567611df2565b5b9060005260206000200160009054906101000a900473ffffffffffffffffffffffffffffffffffffffff1673ffffffffffffffffffffffffffffffffffffffff168373ffffffffffffffffffffffffffffffffffffffff1614156105cb57600191505b80806105d690611d4b565b915050610547565b505b80610620576040517f08c379a000000000000000000000000000000000000000000000000000000000815260040161061790611a85565b60405180910390fd5b8260006001905060005b6002805490508110156106c1576002818154811061064b5761064a611df2565b5b9060005260206000200160009054906101000a900473ffffffffffffffffffffffffffffffffffffffff1673ffffffffffffffffffffffffffffffffffffffff168373ffffffffffffffffffffffffffffffffffffffff1614156106ae57600091505b80806106b990611d4b565b91505061062a565b5080610702576040517f08c379a00000000000000000000000000000000000000000000000000000000081526004016106f990611b05565b60405180910390fd5b600660003373ffffffffffffffffffffffffffffffffffffffff1673ffffffffffffffffffffffffffffffffffffffff168152602001908152602001600020859080600181540180825580915050600190039060005260206000200160009091909190916101000a81548173ffffffffffffffffffffffffffffffffffffffff021916908373ffffffffffffffffffffffffffffffffffffffff1602179055505050505050565b3360006001905060005b60028054905081101561084a57600281815481106107d4576107d3611df2565b5b9060005260206000200160009054906101000a900473ffffffffffffffffffffffffffffffffffffffff1673ffffffffffffffffffffffffffffffffffffffff168373ffffffffffffffffffffffffffffffffffffffff16141561083757600091505b808061084290611d4b565b9150506107b3565b508061088b576040517f08c379a000000000000000000000000000000000000000000000000000000000815260040161088290611b05565b60405180910390fd5b82600080600660008473ffffffffffffffffffffffffffffffffffffffff1673ffffffffffffffffffffffffffffffffffffffff16815260200190815260200160002080548060200260200160405190810160405280929190818152602001828054801561094e57602002820191906000526020600020905b8160009054906101000a900473ffffffffffffffffffffffffffffffffffffffff1673ffffffffffffffffffffffffffffffffffffffff1681526020019060010190808311610904575b505050505090506000815111156109d35760005b81518110156109d1573373ffffffffffffffffffffffffffffffffffffffff1682828151811061099557610994611df2565b5b602002602001015173ffffffffffffffffffffffffffffffffffffffff1614156109be57600192505b80806109c990611d4b565b915050610962565b505b81610a13576040517f08c379a0000000000000000000000000000000000000000000000000000000008152600401610a0a90611b65565b60405180910390fd5b876001610a55576040517f08c379a0000000000000000000000000000000000000000000000000000000008152600401610a4c90611b25565b60405180910390fd5b8660008073ffffffffffffffffffffffffffffffffffffffff168273ffffffffffffffffffffffffffffffffffffffff161415610a955760019050610b31565b60005b600280549050811015610b2f5760028181548110610ab957610ab8611df2565b5b9060005260206000200160009054906101000a900473ffffffffffffffffffffffffffffffffffffffff1673ffffffffffffffffffffffffffffffffffffffff168373ffffffffffffffffffffffffffffffffffffffff161415610b1c57600191505b8080610b2790611d4b565b915050610a98565b505b80610b71576040517f08c379a0000000000000000000000000000000000000000000000000000000008152600401610b6890611a85565b60405180910390fd5b60006040518060a001604052808c81526020013373ffffffffffffffffffffffffffffffffffffffff1681526020018b73ffffffffffffffffffffffffffffffffffffffff1681526020014281526020016000815250905060018190806001815401808255809150506001900390600052602060002090600502016000909190919091506000820151816000019080519060200190610c1192919061161c565b5060208201518160010160006101000a81548173ffffffffffffffffffffffffffffffffffffffff021916908373ffffffffffffffffffffffffffffffffffffffff16021790555060408201518160020160006101000a81548173ffffffffffffffffffffffffffffffffffffffff021916908373ffffffffffffffffffffffffffffffffffffffff160217905550606082015181600301556080820151816004015550506000610cd0600180805490506114fc90919063ffffffff16565b9050610cdc818e6115de565b600460003373ffffffffffffffffffffffffffffffffffffffff1673ffffffffffffffffffffffffffffffffffffffff1681526020019081526020016000208190806001815401808255809150506001900390600052602060002001600090919091909150558a73ffffffffffffffffffffffffffffffffffffffff163373ffffffffffffffffffffffffffffffffffffffff167f34e759819a3fd445432907256daa8d4ea43fb5fcd9b40305f43c7e188f3c245a8342604051610da1929190611b85565b60405180910390a350505050505050505050505050565b60008060009054906101000a900473ffffffffffffffffffffffffffffffffffffffff16905090565b60003360008073ffffffffffffffffffffffffffffffffffffffff168273ffffffffffffffffffffffffffffffffffffffff161415610e235760019050610ebf565b60005b600280549050811015610ebd5760028181548110610e4757610e46611df2565b5b9060005260206000200160009054906101000a900473ffffffffffffffffffffffffffffffffffffffff1673ffffffffffffffffffffffffffffffffffffffff168373ffffffffffffffffffffffffffffffffffffffff161415610eaa57600191505b8080610eb590611d4b565b915050610e26565b505b80610eff576040517f08c379a0000000000000000000000000000000000000000000000000000000008152600401610ef690611a85565b60405180910390fd5b6000600660003373ffffffffffffffffffffffffffffffffffffffff1673ffffffffffffffffffffffffffffffffffffffff168152602001908152602001600020905060005b8180549050811015611020578573ffffffffffffffffffffffffffffffffffffffff16828281548110610f7b57610f7a611df2565b5b9060005260206000200160009054906101000a900473ffffffffffffffffffffffffffffffffffffffff1673ffffffffffffffffffffffffffffffffffffffff16141561100d57818181548110610fd557610fd4611df2565b5b9060005260206000200160006101000a81549073ffffffffffffffffffffffffffffffffffffffff0219169055600194505050611027565b808061101890611d4b565b915050610f45565b5060009350505b5050919050565b81600080600460003373ffffffffffffffffffffffffffffffffffffffff1673ffffffffffffffffffffffffffffffffffffffff1681526020019081526020016000208054806020026020016040519081016040528092919081815260200182805480156110bb57602002820191906000526020600020905b8154815260200190600101908083116110a7575b5050505050905060005b815181101561110857838282815181106110e2576110e1611df2565b5b602002602001015114156110f557600192505b808061110090611d4b565b9150506110c5565b5081611149576040517f08c379a000000000000000000000000000000000000000000000000000000000815260040161114090611ac5565b60405180910390fd5b83600161118b576040517f08c379a000000000000000000000000000000000000000000000000000000000815260040161118290611b25565b60405180910390fd5b61119586866115de565b600186815481106111a9576111a8611df2565b5b906000526020600020906005020160020160009054906101000a900473ffffffffffffffffffffffffffffffffffffffff1673ffffffffffffffffffffffffffffffffffffffff163373ffffffffffffffffffffffffffffffffffffffff167f516404cb7dcfb406fc9e1ab47753e57bf01d7ce5016efefe1d472be69817a89d8842604051611239929190611b85565b60405180910390a3505050505050565b6001818154811061125957600080fd5b906000526020600020906005020160009150905080600001805461127c90611ce8565b80601f01602080910402602001604051908101604052809291908181526020018280546112a890611ce8565b80156112f55780601f106112ca576101008083540402835291602001916112f5565b820191906000526020600020905b8154815290600101906020018083116112d857829003601f168201915b5050505050908060010160009054906101000a900473ffffffffffffffffffffffffffffffffffffffff16908060020160009054906101000a900473ffffffffffffffffffffffffffffffffffffffff16908060030154908060040154905085565b61135f611512565b73ffffffffffffffffffffffffffffffffffffffff1661137d610db8565b73ffffffffffffffffffffffffffffffffffffffff16146113d3576040517f08c379a00000000000000000000000000000000000000000000000000000000081526004016113ca90611b45565b60405180910390fd5b600073ffffffffffffffffffffffffffffffffffffffff168173ffffffffffffffffffffffffffffffffffffffff161415611443576040517f08c379a000000000000000000000000000000000000000000000000000000000815260040161143a90611aa5565b60405180910390fd5b61144c8161151a565b50565b600080600090505b6002805490508110156114f3576002818154811061147857611477611df2565b5b9060005260206000200160009054906101000a900473ffffffffffffffffffffffffffffffffffffffff1673ffffffffffffffffffffffffffffffffffffffff163373ffffffffffffffffffffffffffffffffffffffff1614156114e05760019150506114f9565b80806114eb90611d4b565b915050611457565b50600090505b90565b6000818361150a9190611c20565b905092915050565b600033905090565b60008060009054906101000a900473ffffffffffffffffffffffffffffffffffffffff169050816000806101000a81548173ffffffffffffffffffffffffffffffffffffffff021916908373ffffffffffffffffffffffffffffffffffffffff1602179055508173ffffffffffffffffffffffffffffffffffffffff168173ffffffffffffffffffffffffffffffffffffffff167f8be0079c531659141344cd1fd0a4f28419497f9722a3daafe3b4186f6b6457e060405160405180910390a35050565b600360008381526020019081526020016000208190806001815401808255809150506001900390600052602060002001600090919091909150555050565b82805461162890611ce8565b90600052602060002090601f01602090048101928261164a5760008555611691565b82601f1061166357805160ff1916838001178555611691565b82800160010185558215611691579182015b82811115611690578251825591602001919060010190611675565b5b50905061169e91906116a2565b5090565b5b808211156116bb5760008160009055506001016116a3565b5090565b60006116d26116cd84611bd3565b611bae565b9050828152602081018484840111156116ee576116ed611e55565b5b6116f9848285611ca6565b509392505050565b6000813590506117108161215f565b92915050565b60008135905061172581612176565b92915050565b600082601f8301126117405761173f611e50565b5b81356117508482602086016116bf565b91505092915050565b6000813590506117688161218d565b92915050565b60006020828403121561178457611783611e5f565b5b600061179284828501611701565b91505092915050565b6000806000606084860312156117b4576117b3611e5f565b5b60006117c286828701611716565b935050602084013567ffffffffffffffff8111156117e3576117e2611e5a565b5b6117ef8682870161172b565b925050604061180086828701611701565b9150509250925092565b6000602082840312156118205761181f611e5f565b5b600061182e84828501611759565b91505092915050565b6000806040838503121561184e5761184d611e5f565b5b600061185c85828601611759565b925050602061186d85828601611716565b9150509250929050565b61188081611c54565b82525050565b61188f81611c66565b82525050565b60006118a082611c04565b6118aa8185611c0f565b93506118ba818560208601611cb5565b6118c381611e64565b840191505092915050565b60006118db606083611c0f565b91506118e682611e75565b606082019050919050565b60006118fe602683611c0f565b915061190982611eea565b604082019050919050565b6000611921602783611c0f565b915061192c82611f39565b604082019050919050565b6000611944606583611c0f565b915061194f82611f88565b608082019050919050565b6000611967602a83611c0f565b915061197282612023565b604082019050919050565b600061198a601b83611c0f565b915061199582612072565b602082019050919050565b60006119ad602083611c0f565b91506119b88261209b565b602082019050919050565b60006119d0607683611c0f565b91506119db826120c4565b608082019050919050565b6119ef81611c9c565b82525050565b6000602082019050611a0a6000830184611877565b92915050565b6000602082019050611a256000830184611886565b92915050565b600060a0820190508181036000830152611a458188611895565b9050611a546020830187611877565b611a616040830186611877565b611a6e60608301856119e6565b611a7b60808301846119e6565b9695505050505050565b60006020820190508181036000830152611a9e816118ce565b9050919050565b60006020820190508181036000830152611abe816118f1565b9050919050565b60006020820190508181036000830152611ade81611914565b9050919050565b60006020820190508181036000830152611afe81611937565b9050919050565b60006020820190508181036000830152611b1e8161195a565b9050919050565b60006020820190508181036000830152611b3e8161197d565b9050919050565b60006020820190508181036000830152611b5e816119a0565b9050919050565b60006020820190508181036000830152611b7e816119c3565b9050919050565b6000604082019050611b9a60008301856119e6565b611ba760208301846119e6565b9392505050565b6000611bb8611bc9565b9050611bc48282611d1a565b919050565b6000604051905090565b600067ffffffffffffffff821115611bee57611bed611e21565b5b611bf782611e64565b9050602081019050919050565b600081519050919050565b600082825260208201905092915050565b6000611c2b82611c9c565b9150611c3683611c9c565b925082821015611c4957611c48611d94565b5b828203905092915050565b6000611c5f82611c7c565b9050919050565b60008115159050919050565b6000819050919050565b600073ffffffffffffffffffffffffffffffffffffffff82169050919050565b6000819050919050565b82818337600083830152505050565b60005b83811015611cd3578082015181840152602081019050611cb8565b83811115611ce2576000848401525b50505050565b60006002820490506001821680611d0057607f821691505b60208210811415611d1457611d13611dc3565b5b50919050565b611d2382611e64565b810181811067ffffffffffffffff82111715611d4257611d41611e21565b5b80604052505050565b6000611d5682611c9c565b91507fffffffffffffffffffffffffffffffffffffffffffffffffffffffffffffffff821415611d8957611d88611d94565b5b600182019050919050565b7f4e487b7100000000000000000000000000000000000000000000000000000000600052601160045260246000fd5b7f4e487b7100000000000000000000000000000000000000000000000000000000600052602260045260246000fd5b7f4e487b7100000000000000000000000000000000000000000000000000000000600052603260045260246000fd5b7f4e487b7100000000000000000000000000000000000000000000000000000000600052604160045260246000fd5b600080fd5b600080fd5b600080fd5b600080fd5b6000601f19601f8301169050919050565b7f4554482061646472657373206973206e6f74206120726567697374657265642060008201527f7075626c69636174696f6e2e20437265617465206f6e65206f7220686176652060208201527f61207075626c69736865722061646420796f7520746f20746865207465616d2e604082015250565b7f4f776e61626c653a206e6577206f776e657220697320746865207a65726f206160008201527f6464726573730000000000000000000000000000000000000000000000000000602082015250565b7f596f7520617265206e6f742074686520617574686f72206f662074686973206160008201527f727469636c652e00000000000000000000000000000000000000000000000000602082015250565b7f596f75206861766520616c726561647920617574686f72656420616e2061727460008201527f69636c652e205369676e20696e207769746820616e6f7468657220455448206160208201527f63636f756e7420746f206372656174652061207075626c69736865722061636360408201527f6f756e742e000000000000000000000000000000000000000000000000000000606082015250565b7f4163636f756e7420616c7265616479207265676973746572656420617320612060008201527f7075626c69736865722e00000000000000000000000000000000000000000000602082015250565b7f496e76616c6964204950465320686173682070726f76696465642e0000000000600082015250565b7f4f776e61626c653a2063616c6c6572206973206e6f7420746865206f776e6572600082015250565b7f596f75206e6f742061206d656d626572206f6620746865207075626c6963617460008201527f696f6e2e20436865636b20666f722061646472657373206572726f72732e204160208201527f736b207075626c69636174696f6e206f776e657220746f2061646420796f757260408201527f206164647265737320617320616e20617574686f722e00000000000000000000606082015250565b61216881611c54565b811461217357600080fd5b50565b61217f81611c72565b811461218a57600080fd5b50565b61219681611c9c565b81146121a157600080fd5b5056fea2646970667358221220bc5586b32714cd99044fc72cd510c3f820832e7394f5dad8423cb2e4b0e2d22264736f6c63430008060033",
  "immutableReferences": {},
  "source": "pragma solidity ^0.8.0;\n\nimport \"../client/node_modules/@openzeppelin/contracts/access/Ownable.sol\";\nimport \"../client/node_modules/@openzeppelin/contracts/utils/math/SafeMath.sol\";\n\n/// @title Main parent contract\n/// @author Griffin Sharp & Riley Campbell\n/// @notice TBD\n/// @dev TBD\ncontract Editor is Ownable {\n    // TO-DO: Remove any uint's not being used.\n    // Opitmize uintXXX for smaller values wherever possible (uint256 -> uint16)\n    using SafeMath for uint256;\n    using SafeMath for uint32;\n    using SafeMath for uint16;\n\n    // EVENTS ---\n    // Emitted when article is first created.\n    event ArticlePosted(\n        uint articleId,\n        uint timePosted,\n        address indexed authoraddress,\n        address indexed publicationAddress\n    );\n\n    // Emitted when article is updated.\n    event ArticleEdited(\n        uint articleId,\n        uint timeUpdated,\n        address indexed authorAddress,\n        address indexed publicationAddress\n    );\n\n    event publicationCreated(\n        uint publicationId,\n        uint timeCreated,\n        address indexed publicationAddress\n    );\n\n    struct Article {\n        string articleName;\n        address authorAddress;\n        address publicationAddress;\n        uint timePosted;\n        uint timeUpdated;\n    }\n\n    // VARIABLES ---\n    Article[] public articles;\n    address[] public publications;\n\n    // Mapping of articleId to IPFS hashes of the article.\n    mapping(uint => bytes32[]) articleIdToHashes;\n    // Mapping of author address to the ids of each article they have authored.\n    mapping(address => uint[]) authorAddressToArticleIds;\n\n    // Mapping of publicationId to article ids.\n    mapping(uint => uint[]) publicationIdToArticleIds;\n    // Mapping of publicationId to approved authors.\n    mapping(address => address[]) publicationAddressToAuthors;\n\n    // MODIFIERS ---\n\n    // Checks to see if the caller is the author of the article.\n    modifier onlyAuthorOfArticle(uint _articleId) {\n        bool isAuthor = false;\n        uint[] memory authoredArticles = authorAddressToArticleIds[msg.sender];\n\n        for(uint i=0; i < authoredArticles.length; i++) {\n            if (authoredArticles[i] == _articleId) {\n                isAuthor = true;\n            }\n        }\n\n        require(isAuthor, \"You are not the author of this article.\");\n        _;\n    }\n\n    // Checks to see if the author has NOT created an article yet/still default value.\n    modifier isNotAnAuthor() {\n        require(authorAddressToArticleIds[msg.sender].length == 0, \"You have already authored an article. Sign in with another ETH account to create a publisher account.\");\n        _;\n    }\n\n    // Address provided is not a publication.\n    modifier isNotAPublisher(address _address) {\n        bool isNotPublisher = true;\n\n        for (uint i=0; i < publications.length; i++) {\n            if (_address == publications[i]) {\n                isNotPublisher = false;\n            }\n        }\n\n        require(isNotPublisher, \"Account already registered as a publisher.\");\n        _;\n    }\n\n    // Checks to see if the publicationId provided is registered or the 0x0 address (self-published).\n    modifier publicationValid(address _publicationAddress) {\n        bool isPublication = false;\n\n        if (_publicationAddress == address(0)) {\n            isPublication = true;\n        } else {\n            for (uint i=0; i < publications.length; i++) {\n                if (_publicationAddress == publications[i]) {\n                    isPublication = true;\n                }\n            }\n        }\n\n        require(isPublication, \"ETH address is not a registered publication. Create one or have a publisher add you to the team.\");\n        _;\n    }\n\n    // Checks if user calling the function is on the publication's approved author list\n    modifier isMemberOfPublication(address _publicationAddress) {\n        bool isMember = false;\n        address[] memory approvedAuthors = publicationAddressToAuthors[_publicationAddress];\n\n        if (approvedAuthors.length > 0) {\n            for (uint i=0; i < approvedAuthors.length; i++) {\n                if (approvedAuthors[i] == msg.sender) {\n                    isMember = true;\n                }\n            }\n        }\n\n        require(isMember, \"You not a member of the publication. Check for address errors. Ask publication owner to add your address as an author.\");\n        _;\n    }\n\n    // TO-DO:\n    // Validates IPFS hash\n    modifier isValidHash(bytes32 _ipfsHash) {\n        require(true, \"Invalid IPFS hash provided.\");\n        _;\n    }\n\n    // PUBLIC FUNCTIONS ---\n    /// @notice Adds an author to a publication's approved authors. Can only be called by a publication.\n    /// @dev We only check if its a publication, not a specific publication, since we use msg.sender to add to the authors array. Only adds non-publishers.\n    /// @param _authorAddress The address of the author to be added.\n    function addAuthorToPublication(address _authorAddress) public publicationValid(msg.sender) isNotAPublisher(_authorAddress) {\n        publicationAddressToAuthors[msg.sender].push(_authorAddress);\n    }\n\n    /// @notice Creates a publisher account.\n    /** @dev Checks for if a user is already reigstered as a publisher AND if they haven't authored an article yet.\n    Checks authorAddressToArticleIds and loops though publishers. There is no createAuthor or authors array to save authors gas. */\n    function createPublication() public isNotAPublisher(msg.sender) isNotAnAuthor {\n        publications.push(msg.sender);\n        uint id = publications.length.sub(1);\n        emit publicationCreated({\n            publicationId: id,\n            timeCreated: block.timestamp,\n            publicationAddress: msg.sender\n        });\n    }\n\n    /// @notice Posts a new article to IPFS\n    /// @dev Checks if user is a member of the publication. UI should tell user to use 0x0 address if self-published or to create their own publisher account.\n    /// @param _articleHash IPFS hash of text written by the author\n    /// @param _publicationAddress Address of the publication\n    function postArticle(\n        bytes32 _articleHash,\n        string memory _articleName,\n        address _publicationAddress\n    )\n        public\n        isNotAPublisher(msg.sender)\n        isMemberOfPublication(_publicationAddress)\n        isValidHash(_articleHash)\n        publicationValid(_publicationAddress)\n    {\n        // TO-DO: Run modifier to check for valid hash\n\n        Article memory newArticle = Article({\n            articleName: _articleName,\n            authorAddress: msg.sender,\n            publicationAddress: _publicationAddress,\n            timePosted: block.timestamp,\n            timeUpdated: 0\n        });\n\n        articles.push(newArticle);\n        uint256 articleId = (articles.length).sub(1);\n\n        _addArticleHash(articleId, _articleHash);\n        authorAddressToArticleIds[msg.sender].push(articleId);\n\n        emit ArticlePosted(articleId, block.timestamp, msg.sender, _publicationAddress);\n    }\n\n    /// @notice Removes author from a publication's approved authors. Can only be called by publication.\n    /** @dev Use the return value (bool) to display on the UI a success or failure message. Remove return val if not necessary.\n    Delete inserts the default value back, so it will be 0x0. May have to filter this out on the FE. */\n    /// @param _authorAddress The address of the author to be removed.\n    /// @return Returns true is successfully removed. False is not removed.\n    function removeAuthorFromPublication(address _authorAddress) public publicationValid(msg.sender) returns(bool) {\n        address[] storage authorsArray = publicationAddressToAuthors[msg.sender];\n        for (uint i=0; i < authorsArray.length; i++) {\n            if (authorsArray[i] == _authorAddress) {\n                delete authorsArray[i];\n                return true;\n            }\n        }\n\n        return false;\n    }\n\n    /// @notice Updates an article already uploaded to IPFS by adding new hash\n    /** @dev Only the author may call this fn. Right now, isMemberOfPublication only runs on creation (not on update).\n    Debating adding it here to prevent rogue ex-official authors from sabotage editing, but I also want authors to have full autonomy over their work. */\n    /// @param _articleId The id of the article being updated\n    /// @param _articleHash The hash of the new version of the article's text\n    function updateArticle(uint _articleId, bytes32 _articleHash) public onlyAuthorOfArticle(_articleId) isValidHash(_articleHash) {\n        _addArticleHash(_articleId, _articleHash);\n        emit ArticleEdited(_articleId, block.timestamp, msg.sender, articles[_articleId].publicationAddress);\n    }\n\n    /// @notice View function that checks if the current user is a publisher account.\n    /// @dev Used via UI ONLY. Use modifiers for function checks.\n    /// @return True if publisher account. False is not.\n    function isRegisteredPublisher() public view returns(bool) {\n        for (uint i=0; i < publications.length; i++) {\n            if (msg.sender == publications[i]) {\n                return true;\n            }\n        }\n\n        return false;\n    }\n\n    // PRIVATE FUNCTIONS ---\n    /// @notice Updates an article already uploaded to IPFS.\n    /// @dev\n    /// @param _articleId The id of the article\n    /// @param _articleHash The hash of the article's text\n    function _addArticleHash(uint _articleId, bytes32 _articleHash) private {\n        articleIdToHashes[_articleId].push(_articleHash);\n    }\n}",
  "sourcePath": "/Users/griff/Desktop/ipfs-journal/contracts/Editor.sol",
  "compiler": {
    "name": "solc",
    "version": "0.8.6+commit.11564f7e.Emscripten.clang"
  },
  "schemaVersion": "3.4.1",
  "updatedAt": "2021-08-09T06:16:29.700Z",
  "networkType": "ethereum",
  "devdoc": {
    "author": "Griffin Sharp & Riley Campbell",
    "details": "TBD",
    "kind": "dev",
    "methods": {
      "addAuthorToPublication(address)": {
        "details": "We only check if its a publication, not a specific publication, since we use msg.sender to add to the authors array. Only adds non-publishers.",
        "params": {
          "_authorAddress": "The address of the author to be added."
        }
      },
      "createPublication()": {
        "details": "Checks for if a user is already reigstered as a publisher AND if they haven't authored an article yet. Checks authorAddressToArticleIds and loops though publishers. There is no createAuthor or authors array to save authors gas. "
      },
      "isRegisteredPublisher()": {
        "details": "Used via UI ONLY. Use modifiers for function checks.",
        "returns": {
          "_0": "True if publisher account. False is not."
        }
      },
      "owner()": {
        "details": "Returns the address of the current owner."
      },
      "postArticle(bytes32,string,address)": {
        "details": "Checks if user is a member of the publication. UI should tell user to use 0x0 address if self-published or to create their own publisher account.",
        "params": {
          "_articleHash": "IPFS hash of text written by the author",
          "_publicationAddress": "Address of the publication"
        }
      },
      "removeAuthorFromPublication(address)": {
        "params": {
          "_authorAddress": "The address of the author to be removed."
        },
        "returns": {
          "_0": "Returns true is successfully removed. False is not removed."
        }
      },
      "renounceOwnership()": {
        "details": "Leaves the contract without owner. It will not be possible to call `onlyOwner` functions anymore. Can only be called by the current owner. NOTE: Renouncing ownership will leave the contract without an owner, thereby removing any functionality that is only available to the owner."
      },
      "transferOwnership(address)": {
        "details": "Transfers ownership of the contract to a new account (`newOwner`). Can only be called by the current owner."
      },
      "updateArticle(uint256,bytes32)": {
        "params": {
          "_articleHash": "The hash of the new version of the article's text",
          "_articleId": "The id of the article being updated"
        }
      }
    },
    "title": "Main parent contract",
    "version": 1
  },
  "userdoc": {
    "kind": "user",
    "methods": {
      "addAuthorToPublication(address)": {
        "notice": "Adds an author to a publication's approved authors. Can only be called by a publication."
      },
      "isRegisteredPublisher()": {
        "notice": "View function that checks if the current user is a publisher account."
      },
      "postArticle(bytes32,string,address)": {
        "notice": "Posts a new article to IPFS"
      }
    },
    "notice": "TBD",
    "version": 1
  }
}