{
  "contractName": "Editor",
  "abi": [
    {
      "anonymous": false,
      "inputs": [
        {
          "indexed": false,
          "internalType": "uint256",
          "name": "articleId",
          "type": "uint256"
        },
        {
          "indexed": false,
          "internalType": "uint256",
          "name": "timeUpdated",
          "type": "uint256"
        },
        {
          "indexed": true,
          "internalType": "address",
          "name": "authorAddress",
          "type": "address"
        },
        {
          "indexed": true,
          "internalType": "address",
          "name": "publicationAddress",
          "type": "address"
        }
      ],
      "name": "ArticleEdited",
      "type": "event"
    },
    {
      "anonymous": false,
      "inputs": [
        {
          "indexed": false,
          "internalType": "uint256",
          "name": "articleId",
          "type": "uint256"
        },
        {
          "indexed": false,
          "internalType": "uint256",
          "name": "timePosted",
          "type": "uint256"
        },
        {
          "indexed": true,
          "internalType": "address",
          "name": "authoraddress",
          "type": "address"
        },
        {
          "indexed": true,
          "internalType": "address",
          "name": "publicationAddress",
          "type": "address"
        }
      ],
      "name": "ArticlePosted",
      "type": "event"
    },
    {
      "anonymous": false,
      "inputs": [
        {
          "indexed": true,
          "internalType": "address",
          "name": "previousOwner",
          "type": "address"
        },
        {
          "indexed": true,
          "internalType": "address",
          "name": "newOwner",
          "type": "address"
        }
      ],
      "name": "OwnershipTransferred",
      "type": "event"
    },
    {
      "anonymous": false,
      "inputs": [
        {
          "indexed": false,
          "internalType": "uint256",
          "name": "publicationId",
          "type": "uint256"
        },
        {
          "indexed": false,
          "internalType": "uint256",
          "name": "timeCreated",
          "type": "uint256"
        },
        {
          "indexed": true,
          "internalType": "address",
          "name": "publicationAddress",
          "type": "address"
        }
      ],
      "name": "publicationCreated",
      "type": "event"
    },
    {
      "inputs": [
        {
          "internalType": "uint256",
          "name": "",
          "type": "uint256"
        }
      ],
      "name": "articles",
      "outputs": [
        {
          "internalType": "address",
          "name": "authorAddress",
          "type": "address"
        },
        {
          "internalType": "address",
          "name": "publicationAddress",
          "type": "address"
        },
        {
          "internalType": "uint256",
          "name": "timePosted",
          "type": "uint256"
        },
        {
          "internalType": "uint256",
          "name": "timeUpdated",
          "type": "uint256"
        }
      ],
      "stateMutability": "view",
      "type": "function"
    },
    {
      "inputs": [],
      "name": "owner",
      "outputs": [
        {
          "internalType": "address",
          "name": "",
          "type": "address"
        }
      ],
      "stateMutability": "view",
      "type": "function"
    },
    {
      "inputs": [
        {
          "internalType": "uint256",
          "name": "",
          "type": "uint256"
        }
      ],
      "name": "publications",
      "outputs": [
        {
          "internalType": "address",
          "name": "",
          "type": "address"
        }
      ],
      "stateMutability": "view",
      "type": "function"
    },
    {
      "inputs": [],
      "name": "renounceOwnership",
      "outputs": [],
      "stateMutability": "nonpayable",
      "type": "function"
    },
    {
      "inputs": [
        {
          "internalType": "address",
          "name": "newOwner",
          "type": "address"
        }
      ],
      "name": "transferOwnership",
      "outputs": [],
      "stateMutability": "nonpayable",
      "type": "function"
    },
    {
      "inputs": [
        {
          "internalType": "address",
          "name": "_authorAddress",
          "type": "address"
        }
      ],
      "name": "addAuthorToPublication",
      "outputs": [],
      "stateMutability": "nonpayable",
      "type": "function"
    },
    {
      "inputs": [],
      "name": "createPublication",
      "outputs": [],
      "stateMutability": "nonpayable",
      "type": "function"
    },
    {
      "inputs": [
        {
          "internalType": "bytes32",
          "name": "_articleHash",
          "type": "bytes32"
        },
        {
          "internalType": "address",
          "name": "_publicationAddress",
          "type": "address"
        }
      ],
      "name": "postArticle",
      "outputs": [],
      "stateMutability": "nonpayable",
      "type": "function"
    },
    {
      "inputs": [
        {
          "internalType": "address",
          "name": "_authorAddress",
          "type": "address"
        }
      ],
      "name": "removeAuthorFromPublication",
      "outputs": [
        {
          "internalType": "bool",
          "name": "",
          "type": "bool"
        }
      ],
      "stateMutability": "nonpayable",
      "type": "function"
    },
    {
      "inputs": [
        {
          "internalType": "uint256",
          "name": "_articleId",
          "type": "uint256"
        },
        {
          "internalType": "bytes32",
          "name": "_articleHash",
          "type": "bytes32"
        }
      ],
      "name": "updateArticle",
      "outputs": [],
      "stateMutability": "nonpayable",
      "type": "function"
    },
    {
      "inputs": [],
      "name": "isRegisteredPublisher",
      "outputs": [
        {
          "internalType": "bool",
          "name": "",
          "type": "bool"
        }
      ],
      "stateMutability": "view",
      "type": "function"
    }
  ],
  "bytecode": "0x608060405234801561001057600080fd5b5061002d61002261003260201b60201c565b61003a60201b60201c565b6100fe565b600033905090565b60008060009054906101000a900473ffffffffffffffffffffffffffffffffffffffff169050816000806101000a81548173ffffffffffffffffffffffffffffffffffffffff021916908373ffffffffffffffffffffffffffffffffffffffff1602179055508173ffffffffffffffffffffffffffffffffffffffff168173ffffffffffffffffffffffffffffffffffffffff167f8be0079c531659141344cd1fd0a4f28419497f9722a3daafe3b4186f6b6457e060405160405180910390a35050565b611e0c8061010d6000396000f3fe608060405234801561001057600080fd5b50600436106100a85760003560e01c80638da5cb5b116100715780638da5cb5b14610129578063dca3e34614610147578063dde900bf14610177578063edcfafe614610193578063f2fde38b146101c6578063f724b0b2146101e2576100a8565b8062fd6bf7146100ad578063052215f6146100b75780631fd5bbab146100d3578063715018a6146101035780637ae9637b1461010d575b600080fd5b6100b5610200565b005b6100d160048036038101906100cc91906115ce565b610435565b005b6100ed60048036038101906100e8919061160e565b610a20565b6040516100fa91906117c0565b60405180910390f35b61010b610a5f565b005b610127600480360381019061012291906115a1565b610ae7565b005b610131610d8c565b60405161013e91906117c0565b60405180910390f35b610161600480360381019061015c91906115a1565b610db5565b60405161016e9190611820565b60405180910390f35b610191600480360381019061018c919061163b565b611002565b005b6101ad60048036038101906101a8919061160e565b61121d565b6040516101bd94939291906117db565b60405180910390f35b6101e060048036038101906101db91906115a1565b61129d565b005b6101ea611395565b6040516101f79190611820565b60405180910390f35b3360006001905060005b6002805490508110156102a1576002818154811061022b5761022a611a73565b5b9060005260206000200160009054906101000a900473ffffffffffffffffffffffffffffffffffffffff1673ffffffffffffffffffffffffffffffffffffffff168373ffffffffffffffffffffffffffffffffffffffff16141561028e57600091505b8080610299906119fb565b91505061020a565b50806102e2576040517f08c379a00000000000000000000000000000000000000000000000000000000081526004016102d9906118bb565b60405180910390fd5b6000600460003373ffffffffffffffffffffffffffffffffffffffff1673ffffffffffffffffffffffffffffffffffffffff1681526020019081526020016000208054905014610367576040517f08c379a000000000000000000000000000000000000000000000000000000000815260040161035e9061189b565b60405180910390fd5b6002339080600181540180825580915050600190039060005260206000200160009091909190916101000a81548173ffffffffffffffffffffffffffffffffffffffff021916908373ffffffffffffffffffffffffffffffffffffffff160217905550600060016002805490506103de9190611975565b90503373ffffffffffffffffffffffffffffffffffffffff167fdf888d7ef5027a4c5a75d67f940cba733410661403f7fdce05bcc7cdf8f72552824260405161042892919061193b565b60405180910390a2505050565b3360006001905060005b6002805490508110156104d657600281815481106104605761045f611a73565b5b9060005260206000200160009054906101000a900473ffffffffffffffffffffffffffffffffffffffff1673ffffffffffffffffffffffffffffffffffffffff168373ffffffffffffffffffffffffffffffffffffffff1614156104c357600091505b80806104ce906119fb565b91505061043f565b5080610517576040517f08c379a000000000000000000000000000000000000000000000000000000000815260040161050e906118bb565b60405180910390fd5b82600080600660008473ffffffffffffffffffffffffffffffffffffffff1673ffffffffffffffffffffffffffffffffffffffff1681526020019081526020016000208054806020026020016040519081016040528092919081815260200182805480156105da57602002820191906000526020600020905b8160009054906101000a900473ffffffffffffffffffffffffffffffffffffffff1673ffffffffffffffffffffffffffffffffffffffff1681526020019060010190808311610590575b5050505050905060008151111561065f5760005b815181101561065d573373ffffffffffffffffffffffffffffffffffffffff1682828151811061062157610620611a73565b5b602002602001015173ffffffffffffffffffffffffffffffffffffffff16141561064a57600192505b8080610655906119fb565b9150506105ee565b505b8161069f576040517f08c379a00000000000000000000000000000000000000000000000000000000081526004016106969061191b565b60405180910390fd5b8660016106e1576040517f08c379a00000000000000000000000000000000000000000000000000000000081526004016106d8906118db565b60405180910390fd5b8660008073ffffffffffffffffffffffffffffffffffffffff168273ffffffffffffffffffffffffffffffffffffffff16141561072157600190506107bd565b60005b6002805490508110156107bb576002818154811061074557610744611a73565b5b9060005260206000200160009054906101000a900473ffffffffffffffffffffffffffffffffffffffff1673ffffffffffffffffffffffffffffffffffffffff168373ffffffffffffffffffffffffffffffffffffffff1614156107a857600191505b80806107b3906119fb565b915050610724565b505b806107fd576040517f08c379a00000000000000000000000000000000000000000000000000000000081526004016107f49061183b565b60405180910390fd5b600060405180608001604052803373ffffffffffffffffffffffffffffffffffffffff1681526020018b73ffffffffffffffffffffffffffffffffffffffff16815260200142815260200160008152509050600181908060018154018082558091505060019003906000526020600020906004020160009091909190915060008201518160000160006101000a81548173ffffffffffffffffffffffffffffffffffffffff021916908373ffffffffffffffffffffffffffffffffffffffff16021790555060208201518160010160006101000a81548173ffffffffffffffffffffffffffffffffffffffff021916908373ffffffffffffffffffffffffffffffffffffffff1602179055506040820151816002015560608201518160030155505060006109396001808054905061144290919063ffffffff16565b9050610945818d611458565b600460003373ffffffffffffffffffffffffffffffffffffffff1673ffffffffffffffffffffffffffffffffffffffff1681526020019081526020016000208190806001815401808255809150506001900390600052602060002001600090919091909150558a73ffffffffffffffffffffffffffffffffffffffff163373ffffffffffffffffffffffffffffffffffffffff167f34e759819a3fd445432907256daa8d4ea43fb5fcd9b40305f43c7e188f3c245a8342604051610a0a92919061193b565b60405180910390a3505050505050505050505050565b60028181548110610a3057600080fd5b906000526020600020016000915054906101000a900473ffffffffffffffffffffffffffffffffffffffff1681565b610a67611496565b73ffffffffffffffffffffffffffffffffffffffff16610a85610d8c565b73ffffffffffffffffffffffffffffffffffffffff1614610adb576040517f08c379a0000000000000000000000000000000000000000000000000000000008152600401610ad2906118fb565b60405180910390fd5b610ae5600061149e565b565b3360008073ffffffffffffffffffffffffffffffffffffffff168273ffffffffffffffffffffffffffffffffffffffff161415610b275760019050610bc3565b60005b600280549050811015610bc15760028181548110610b4b57610b4a611a73565b5b9060005260206000200160009054906101000a900473ffffffffffffffffffffffffffffffffffffffff1673ffffffffffffffffffffffffffffffffffffffff168373ffffffffffffffffffffffffffffffffffffffff161415610bae57600191505b8080610bb9906119fb565b915050610b2a565b505b80610c03576040517f08c379a0000000000000000000000000000000000000000000000000000000008152600401610bfa9061183b565b60405180910390fd5b8260006001905060005b600280549050811015610ca45760028181548110610c2e57610c2d611a73565b5b9060005260206000200160009054906101000a900473ffffffffffffffffffffffffffffffffffffffff1673ffffffffffffffffffffffffffffffffffffffff168373ffffffffffffffffffffffffffffffffffffffff161415610c9157600091505b8080610c9c906119fb565b915050610c0d565b5080610ce5576040517f08c379a0000000000000000000000000000000000000000000000000000000008152600401610cdc906118bb565b60405180910390fd5b600660003373ffffffffffffffffffffffffffffffffffffffff1673ffffffffffffffffffffffffffffffffffffffff168152602001908152602001600020859080600181540180825580915050600190039060005260206000200160009091909190916101000a81548173ffffffffffffffffffffffffffffffffffffffff021916908373ffffffffffffffffffffffffffffffffffffffff1602179055505050505050565b60008060009054906101000a900473ffffffffffffffffffffffffffffffffffffffff16905090565b60003360008073ffffffffffffffffffffffffffffffffffffffff168273ffffffffffffffffffffffffffffffffffffffff161415610df75760019050610e93565b60005b600280549050811015610e915760028181548110610e1b57610e1a611a73565b5b9060005260206000200160009054906101000a900473ffffffffffffffffffffffffffffffffffffffff1673ffffffffffffffffffffffffffffffffffffffff168373ffffffffffffffffffffffffffffffffffffffff161415610e7e57600191505b8080610e89906119fb565b915050610dfa565b505b80610ed3576040517f08c379a0000000000000000000000000000000000000000000000000000000008152600401610eca9061183b565b60405180910390fd5b6000600660003373ffffffffffffffffffffffffffffffffffffffff1673ffffffffffffffffffffffffffffffffffffffff168152602001908152602001600020905060005b8180549050811015610ff4578573ffffffffffffffffffffffffffffffffffffffff16828281548110610f4f57610f4e611a73565b5b9060005260206000200160009054906101000a900473ffffffffffffffffffffffffffffffffffffffff1673ffffffffffffffffffffffffffffffffffffffff161415610fe157818181548110610fa957610fa8611a73565b5b9060005260206000200160006101000a81549073ffffffffffffffffffffffffffffffffffffffff0219169055600194505050610ffb565b8080610fec906119fb565b915050610f19565b5060009350505b5050919050565b81600080600460003373ffffffffffffffffffffffffffffffffffffffff1673ffffffffffffffffffffffffffffffffffffffff16815260200190815260200160002080548060200260200160405190810160405280929190818152602001828054801561108f57602002820191906000526020600020905b81548152602001906001019080831161107b575b5050505050905060005b81518110156110dc57838282815181106110b6576110b5611a73565b5b602002602001015114156110c957600192505b80806110d4906119fb565b915050611099565b508161111d576040517f08c379a00000000000000000000000000000000000000000000000000000000081526004016111149061187b565b60405180910390fd5b83600161115f576040517f08c379a0000000000000000000000000000000000000000000000000000000008152600401611156906118db565b60405180910390fd5b6111698686611458565b6001868154811061117d5761117c611a73565b5b906000526020600020906004020160010160009054906101000a900473ffffffffffffffffffffffffffffffffffffffff1673ffffffffffffffffffffffffffffffffffffffff163373ffffffffffffffffffffffffffffffffffffffff167f516404cb7dcfb406fc9e1ab47753e57bf01d7ce5016efefe1d472be69817a89d884260405161120d92919061193b565b60405180910390a3505050505050565b6001818154811061122d57600080fd5b90600052602060002090600402016000915090508060000160009054906101000a900473ffffffffffffffffffffffffffffffffffffffff16908060010160009054906101000a900473ffffffffffffffffffffffffffffffffffffffff16908060020154908060030154905084565b6112a5611496565b73ffffffffffffffffffffffffffffffffffffffff166112c3610d8c565b73ffffffffffffffffffffffffffffffffffffffff1614611319576040517f08c379a0000000000000000000000000000000000000000000000000000000008152600401611310906118fb565b60405180910390fd5b600073ffffffffffffffffffffffffffffffffffffffff168173ffffffffffffffffffffffffffffffffffffffff161415611389576040517f08c379a00000000000000000000000000000000000000000000000000000000081526004016113809061185b565b60405180910390fd5b6113928161149e565b50565b600080600090505b60028054905081101561143957600281815481106113be576113bd611a73565b5b9060005260206000200160009054906101000a900473ffffffffffffffffffffffffffffffffffffffff1673ffffffffffffffffffffffffffffffffffffffff163373ffffffffffffffffffffffffffffffffffffffff16141561142657600191505061143f565b8080611431906119fb565b91505061139d565b50600090505b90565b600081836114509190611975565b905092915050565b600360008381526020019081526020016000208190806001815401808255809150506001900390600052602060002001600090919091909150555050565b600033905090565b60008060009054906101000a900473ffffffffffffffffffffffffffffffffffffffff169050816000806101000a81548173ffffffffffffffffffffffffffffffffffffffff021916908373ffffffffffffffffffffffffffffffffffffffff1602179055508173ffffffffffffffffffffffffffffffffffffffff168173ffffffffffffffffffffffffffffffffffffffff167f8be0079c531659141344cd1fd0a4f28419497f9722a3daafe3b4186f6b6457e060405160405180910390a35050565b60008135905061157181611d91565b92915050565b60008135905061158681611da8565b92915050565b60008135905061159b81611dbf565b92915050565b6000602082840312156115b7576115b6611aa2565b5b60006115c584828501611562565b91505092915050565b600080604083850312156115e5576115e4611aa2565b5b60006115f385828601611577565b925050602061160485828601611562565b9150509250929050565b60006020828403121561162457611623611aa2565b5b60006116328482850161158c565b91505092915050565b6000806040838503121561165257611651611aa2565b5b60006116608582860161158c565b925050602061167185828601611577565b9150509250929050565b611684816119a9565b82525050565b611693816119bb565b82525050565b60006116a6606083611964565b91506116b182611aa7565b606082019050919050565b60006116c9602683611964565b91506116d482611b1c565b604082019050919050565b60006116ec602783611964565b91506116f782611b6b565b604082019050919050565b600061170f606583611964565b915061171a82611bba565b608082019050919050565b6000611732602a83611964565b915061173d82611c55565b604082019050919050565b6000611755601b83611964565b915061176082611ca4565b602082019050919050565b6000611778602083611964565b915061178382611ccd565b602082019050919050565b600061179b607683611964565b91506117a682611cf6565b608082019050919050565b6117ba816119f1565b82525050565b60006020820190506117d5600083018461167b565b92915050565b60006080820190506117f0600083018761167b565b6117fd602083018661167b565b61180a60408301856117b1565b61181760608301846117b1565b95945050505050565b6000602082019050611835600083018461168a565b92915050565b6000602082019050818103600083015261185481611699565b9050919050565b60006020820190508181036000830152611874816116bc565b9050919050565b60006020820190508181036000830152611894816116df565b9050919050565b600060208201905081810360008301526118b481611702565b9050919050565b600060208201905081810360008301526118d481611725565b9050919050565b600060208201905081810360008301526118f481611748565b9050919050565b600060208201905081810360008301526119148161176b565b9050919050565b600060208201905081810360008301526119348161178e565b9050919050565b600060408201905061195060008301856117b1565b61195d60208301846117b1565b9392505050565b600082825260208201905092915050565b6000611980826119f1565b915061198b836119f1565b92508282101561199e5761199d611a44565b5b828203905092915050565b60006119b4826119d1565b9050919050565b60008115159050919050565b6000819050919050565b600073ffffffffffffffffffffffffffffffffffffffff82169050919050565b6000819050919050565b6000611a06826119f1565b91507fffffffffffffffffffffffffffffffffffffffffffffffffffffffffffffffff821415611a3957611a38611a44565b5b600182019050919050565b7f4e487b7100000000000000000000000000000000000000000000000000000000600052601160045260246000fd5b7f4e487b7100000000000000000000000000000000000000000000000000000000600052603260045260246000fd5b600080fd5b7f4554482061646472657373206973206e6f74206120726567697374657265642060008201527f7075626c69636174696f6e2e20437265617465206f6e65206f7220686176652060208201527f61207075626c69736865722061646420796f7520746f20746865207465616d2e604082015250565b7f4f776e61626c653a206e6577206f776e657220697320746865207a65726f206160008201527f6464726573730000000000000000000000000000000000000000000000000000602082015250565b7f596f7520617265206e6f742074686520617574686f72206f662074686973206160008201527f727469636c652e00000000000000000000000000000000000000000000000000602082015250565b7f596f75206861766520616c726561647920617574686f72656420616e2061727460008201527f69636c652e205369676e20696e207769746820616e6f7468657220455448206160208201527f63636f756e7420746f206372656174652061207075626c69736865722061636360408201527f6f756e742e000000000000000000000000000000000000000000000000000000606082015250565b7f4163636f756e7420616c7265616479207265676973746572656420617320612060008201527f7075626c69736865722e00000000000000000000000000000000000000000000602082015250565b7f496e76616c6964204950465320686173682070726f76696465642e0000000000600082015250565b7f4f776e61626c653a2063616c6c6572206973206e6f7420746865206f776e6572600082015250565b7f596f75206e6f742061206d656d626572206f6620746865207075626c6963617460008201527f696f6e2e20436865636b20666f722061646472657373206572726f72732e204160208201527f736b207075626c69636174696f6e206f776e657220746f2061646420796f757260408201527f206164647265737320617320616e20617574686f722e00000000000000000000606082015250565b611d9a816119a9565b8114611da557600080fd5b50565b611db1816119c7565b8114611dbc57600080fd5b50565b611dc8816119f1565b8114611dd357600080fd5b5056fea26469706673582212204a376ed7f8d5796f0f46882d56109331867a6a15746d3de5420200cbd387669164736f6c63430008060033",
  "immutableReferences": {},
  "source": "pragma solidity ^0.8.0;\n\nimport \"../client/node_modules/@openzeppelin/contracts/access/Ownable.sol\";\nimport \"../client/node_modules/@openzeppelin/contracts/utils/math/SafeMath.sol\";\n\n/// @title Main parent contract\n/// @author Griffin Sharp & Riley Campbell\n/// @notice TBD\n/// @dev TBD\ncontract Editor is Ownable {\n    // TO-DO: Remove any uint's not being used.\n    // Opitmize uintXXX for smaller values wherever possible (uint256 -> uint16)\n    using SafeMath for uint256;\n    using SafeMath for uint32;\n    using SafeMath for uint16;\n\n    // EVENTS ---\n    // Emitted when article is first created.\n    event ArticlePosted(\n        uint articleId,\n        uint timePosted,\n        address indexed authoraddress,\n        address indexed publicationAddress\n    );\n\n    // Emitted when article is updated.\n    event ArticleEdited(\n        uint articleId,\n        uint timeUpdated,\n        address indexed authorAddress,\n        address indexed publicationAddress\n    );\n\n    event publicationCreated(\n        uint publicationId,\n        uint timeCreated,\n        address indexed publicationAddress\n    );\n\n    struct Article {\n        address authorAddress;\n        address publicationAddress;\n        uint timePosted;\n        uint timeUpdated;\n    }\n\n    // VARIABLES ---\n    Article[] public articles;\n    address[] public publications;\n\n    // Mapping of articleId to IPFS hashes of the article.\n    mapping(uint => bytes32[]) articleIdToHashes;\n    // Mapping of author address to the ids of each article they have authored.\n    mapping(address => uint[]) authorAddressToArticleIds;\n\n    // Mapping of publicationId to article ids.\n    mapping(uint => uint[]) publicationIdToArticleIds;\n    // Mapping of publicationId to approved authors.\n    mapping(address => address[]) publicationAddressToAuthors;\n\n    // MODIFIERS ---\n\n    // Checks to see if the caller is the author of the article.\n    modifier onlyAuthorOfArticle(uint _articleId) {\n        bool isAuthor = false;\n        uint[] memory authoredArticles = authorAddressToArticleIds[msg.sender];\n\n        for(uint i=0; i < authoredArticles.length; i++) {\n            if (authoredArticles[i] == _articleId) {\n                isAuthor = true;\n            }\n        }\n\n        require(isAuthor, \"You are not the author of this article.\");\n        _;\n    }\n\n    // Checks to see if the author has NOT created an article yet/still default value.\n    modifier isNotAnAuthor() {\n        require(authorAddressToArticleIds[msg.sender].length == 0, \"You have already authored an article. Sign in with another ETH account to create a publisher account.\");\n        _;\n    }\n\n    // Address provided is not a publication.\n    modifier isNotAPublisher(address _address) {\n        bool isNotPublisher = true;\n\n        for (uint i=0; i < publications.length; i++) {\n            if (_address == publications[i]) {\n                isNotPublisher = false;\n            }\n        }\n\n        require(isNotPublisher, \"Account already registered as a publisher.\");\n        _;\n    }\n\n    // Checks to see if the publicationId provided is registered or the 0x0 address (self-published).\n    modifier publicationValid(address _publicationAddress) {\n        bool isPublication = false;\n\n        if (_publicationAddress == address(0)) {\n            isPublication = true;\n        } else {\n            for (uint i=0; i < publications.length; i++) {\n                if (_publicationAddress == publications[i]) {\n                    isPublication = true;\n                }\n            }\n        }\n\n        require(isPublication, \"ETH address is not a registered publication. Create one or have a publisher add you to the team.\");\n        _;\n    }\n\n    // Checks if user calling the function is on the publication's approved author list\n    modifier isMemberOfPublication(address _publicationAddress) {\n        bool isMember = false;\n        address[] memory approvedAuthors = publicationAddressToAuthors[_publicationAddress];\n\n        if (approvedAuthors.length > 0) {\n            for (uint i=0; i < approvedAuthors.length; i++) {\n                if (approvedAuthors[i] == msg.sender) {\n                    isMember = true;\n                }\n            }\n        }\n\n        require(isMember, \"You not a member of the publication. Check for address errors. Ask publication owner to add your address as an author.\");\n        _;\n    }\n\n    // TO-DO:\n    // Validates IPFS hash\n    modifier isValidHash(bytes32 _ipfsHash) {\n        require(true, \"Invalid IPFS hash provided.\");\n        _;\n    }\n\n    // PUBLIC FUNCTIONS ---\n    /// @notice Adds an author to a publication's approved authors. Can only be called by a publication.\n    /// @dev We only check if its a publication, not a specific publication, since we use msg.sender to add to the authors array. Only adds non-publishers.\n    /// @param _authorAddress The address of the author to be added.\n    function addAuthorToPublication(address _authorAddress) public publicationValid(msg.sender) isNotAPublisher(_authorAddress) {\n        publicationAddressToAuthors[msg.sender].push(_authorAddress);\n    }\n\n    /// @notice Creates a publisher account.\n    /** @dev Checks for if a user is already reigstered as a publisher AND if they haven't authored an article yet.\n    Checks authorAddressToArticleIds and loops though publishers. There is no createAuthor or authors array to save authors gas. */\n    function createPublication() public isNotAPublisher(msg.sender) isNotAnAuthor {\n        publications.push(msg.sender);\n        uint id = publications.length - 1;\n        emit publicationCreated({\n            publicationId: id,\n            timeCreated: block.timestamp,\n            publicationAddress: msg.sender\n        });\n    }\n\n    /// @notice Posts a new article to IPFS\n    /// @dev Checks if user is a member of the publication. UI should tell user to use 0x0 address if self-published or to create their own publisher account.\n    /// @param _articleHash IPFS hash of text written by the author\n    /// @param _publicationAddress Address of the publication\n    function postArticle(\n        bytes32 _articleHash,\n        address _publicationAddress\n    )\n        public\n        isNotAPublisher(msg.sender)\n        isMemberOfPublication(_publicationAddress)\n        isValidHash(_articleHash)\n        publicationValid(_publicationAddress)\n    {\n        // TO-DO: Run modifier to check for valid hash\n\n        Article memory newArticle = Article({\n            authorAddress: msg.sender,\n            publicationAddress: _publicationAddress,\n            timePosted: block.timestamp,\n            timeUpdated: 0\n        });\n\n        articles.push(newArticle);\n        uint256 articleId = (articles.length).sub(1);\n\n        _addArticleHash(articleId, _articleHash);\n        authorAddressToArticleIds[msg.sender].push(articleId);\n\n        emit ArticlePosted(articleId, block.timestamp, msg.sender, _publicationAddress);\n    }\n\n    /// @notice Removes author from a publication's approved authors. Can only be called by publication.\n    /** @dev Use the return value (bool) to display on the UI a success or failure message. Remove return val if not necessary.\n    Delete inserts the default value back, so it will be 0x0. May have to filter this out on the FE. */\n    /// @param _authorAddress The address of the author to be removed.\n    /// @return Returns true is successfully removed. False is not removed.\n    function removeAuthorFromPublication(address _authorAddress) public publicationValid(msg.sender) returns(bool) {\n        address[] storage authorsArray = publicationAddressToAuthors[msg.sender];\n        for (uint i=0; i < authorsArray.length; i++) {\n            if (authorsArray[i] == _authorAddress) {\n                delete authorsArray[i];\n                return true;\n            }\n        }\n\n        return false;\n    }\n\n    /// @notice Updates an article already uploaded to IPFS by adding new hash\n    /** @dev Only the author may call this fn. Right now, isMemberOfPublication only runs on creation (not on update).\n    Debating adding it here to prevent rogue ex-official authors from sabotage editing, but I also want authors to have full autonomy over their work. */\n    /// @param _articleId The id of the article being updated\n    /// @param _articleHash The hash of the new version of the article's text\n    function updateArticle(uint _articleId, bytes32 _articleHash) public onlyAuthorOfArticle(_articleId) isValidHash(_articleHash) {\n        _addArticleHash(_articleId, _articleHash);\n        emit ArticleEdited(_articleId, block.timestamp, msg.sender, articles[_articleId].publicationAddress);\n    }\n\n    /// @notice View function that checks if the current user is a publisher account.\n    /// @dev Used via UI ONLY. Use modifiers for function checks.\n    /// @return True if publisher account. False is not.\n    function isRegisteredPublisher() public view returns(bool) {\n        for (uint i=0; i < publications.length; i++) {\n            if (msg.sender == publications[i]) {\n                return true;\n            }\n        }\n\n        return false;\n    }\n\n    // PRIVATE FUNCTIONS ---\n    /// @notice Updates an article already uploaded to IPFS.\n    /// @dev\n    /// @param _articleId The id of the article\n    /// @param _articleHash The hash of the article's text\n    function _addArticleHash(uint _articleId, bytes32 _articleHash) private {\n        articleIdToHashes[_articleId].push(_articleHash);\n    }\n}",
  "sourcePath": "/Users/griff/Desktop/ipfs-journal/contracts/Editor.sol",
  "compiler": {
    "name": "solc",
    "version": "0.8.6+commit.11564f7e.Emscripten.clang"
  },
  "schemaVersion": "3.4.1",
  "updatedAt": "2021-08-08T03:55:11.080Z",
  "devdoc": {
    "author": "Griffin Sharp & Riley Campbell",
    "details": "TBD",
    "kind": "dev",
    "methods": {
      "addAuthorToPublication(address)": {
        "details": "We only check if its a publication, not a specific publication, since we use msg.sender to add to the authors array. Only adds non-publishers.",
        "params": {
          "_authorAddress": "The address of the author to be added."
        }
      },
      "createPublication()": {
        "details": "Checks for if a user is already reigstered as a publisher AND if they haven't authored an article yet. Checks authorAddressToArticleIds and loops though publishers. There is no createAuthor or authors array to save authors gas. "
      },
      "isRegisteredPublisher()": {
        "details": "Used via UI ONLY. Use modifiers for function checks.",
        "returns": {
          "_0": "True if publisher account. False is not."
        }
      },
      "owner()": {
        "details": "Returns the address of the current owner."
      },
      "postArticle(bytes32,address)": {
        "details": "Checks if user is a member of the publication. UI should tell user to use 0x0 address if self-published or to create their own publisher account.",
        "params": {
          "_articleHash": "IPFS hash of text written by the author",
          "_publicationAddress": "Address of the publication"
        }
      },
      "removeAuthorFromPublication(address)": {
        "params": {
          "_authorAddress": "The address of the author to be removed."
        },
        "returns": {
          "_0": "Returns true is successfully removed. False is not removed."
        }
      },
      "renounceOwnership()": {
        "details": "Leaves the contract without owner. It will not be possible to call `onlyOwner` functions anymore. Can only be called by the current owner. NOTE: Renouncing ownership will leave the contract without an owner, thereby removing any functionality that is only available to the owner."
      },
      "transferOwnership(address)": {
        "details": "Transfers ownership of the contract to a new account (`newOwner`). Can only be called by the current owner."
      },
      "updateArticle(uint256,bytes32)": {
        "params": {
          "_articleHash": "The hash of the new version of the article's text",
          "_articleId": "The id of the article being updated"
        }
      }
    },
    "title": "Main parent contract",
    "version": 1
  },
  "userdoc": {
    "kind": "user",
    "methods": {
      "addAuthorToPublication(address)": {
        "notice": "Adds an author to a publication's approved authors. Can only be called by a publication."
      },
      "isRegisteredPublisher()": {
        "notice": "View function that checks if the current user is a publisher account."
      },
      "postArticle(bytes32,address)": {
        "notice": "Posts a new article to IPFS"
      }
    },
    "notice": "TBD",
    "version": 1
  }
}