{
  "contractName": "Editor",
  "abi": [
    {
      "anonymous": false,
      "inputs": [
        {
          "indexed": false,
          "internalType": "uint256",
          "name": "articleId",
          "type": "uint256"
        },
        {
          "indexed": false,
          "internalType": "uint256",
          "name": "timeUpdated",
          "type": "uint256"
        },
        {
          "indexed": true,
          "internalType": "address",
          "name": "authorAddress",
          "type": "address"
        },
        {
          "indexed": true,
          "internalType": "address",
          "name": "publicationAddress",
          "type": "address"
        }
      ],
      "name": "ArticleEdited",
      "type": "event"
    },
    {
      "anonymous": false,
      "inputs": [
        {
          "indexed": false,
          "internalType": "uint256",
          "name": "articleId",
          "type": "uint256"
        },
        {
          "indexed": false,
          "internalType": "uint256",
          "name": "timePosted",
          "type": "uint256"
        },
        {
          "indexed": true,
          "internalType": "address",
          "name": "authoraddress",
          "type": "address"
        },
        {
          "indexed": true,
          "internalType": "address",
          "name": "publicationAddress",
          "type": "address"
        }
      ],
      "name": "ArticlePosted",
      "type": "event"
    },
    {
      "anonymous": false,
      "inputs": [
        {
          "indexed": true,
          "internalType": "address",
          "name": "previousOwner",
          "type": "address"
        },
        {
          "indexed": true,
          "internalType": "address",
          "name": "newOwner",
          "type": "address"
        }
      ],
      "name": "OwnershipTransferred",
      "type": "event"
    },
    {
      "anonymous": false,
      "inputs": [
        {
          "indexed": false,
          "internalType": "uint256",
          "name": "publicationId",
          "type": "uint256"
        },
        {
          "indexed": false,
          "internalType": "uint256",
          "name": "timeCreated",
          "type": "uint256"
        },
        {
          "indexed": true,
          "internalType": "address",
          "name": "publicationAddress",
          "type": "address"
        }
      ],
      "name": "publicationCreated",
      "type": "event"
    },
    {
      "inputs": [
        {
          "internalType": "uint256",
          "name": "",
          "type": "uint256"
        }
      ],
      "name": "articles",
      "outputs": [
        {
          "internalType": "string",
          "name": "articleName",
          "type": "string"
        },
        {
          "internalType": "address",
          "name": "authorAddress",
          "type": "address"
        },
        {
          "internalType": "address",
          "name": "publicationAddress",
          "type": "address"
        },
        {
          "internalType": "uint256",
          "name": "timePosted",
          "type": "uint256"
        },
        {
          "internalType": "uint256",
          "name": "timeUpdated",
          "type": "uint256"
        }
      ],
      "stateMutability": "view",
      "type": "function",
      "constant": true
    },
    {
      "inputs": [],
      "name": "owner",
      "outputs": [
        {
          "internalType": "address",
          "name": "",
          "type": "address"
        }
      ],
      "stateMutability": "view",
      "type": "function",
      "constant": true
    },
    {
      "inputs": [
        {
          "internalType": "uint256",
          "name": "",
          "type": "uint256"
        }
      ],
      "name": "publications",
      "outputs": [
        {
          "internalType": "address",
          "name": "",
          "type": "address"
        }
      ],
      "stateMutability": "view",
      "type": "function",
      "constant": true
    },
    {
      "inputs": [],
      "name": "renounceOwnership",
      "outputs": [],
      "stateMutability": "nonpayable",
      "type": "function"
    },
    {
      "inputs": [
        {
          "internalType": "address",
          "name": "newOwner",
          "type": "address"
        }
      ],
      "name": "transferOwnership",
      "outputs": [],
      "stateMutability": "nonpayable",
      "type": "function"
    },
    {
      "inputs": [
        {
          "internalType": "address",
          "name": "_authorAddress",
          "type": "address"
        }
      ],
      "name": "addAuthorToPublication",
      "outputs": [],
      "stateMutability": "nonpayable",
      "type": "function"
    },
    {
      "inputs": [],
      "name": "createPublication",
      "outputs": [],
      "stateMutability": "nonpayable",
      "type": "function"
    },
    {
      "inputs": [
        {
          "internalType": "bytes",
          "name": "_articleHash",
          "type": "bytes"
        },
        {
          "internalType": "string",
          "name": "_articleName",
          "type": "string"
        },
        {
          "internalType": "address",
          "name": "_publicationAddress",
          "type": "address"
        }
      ],
      "name": "postArticle",
      "outputs": [],
      "stateMutability": "nonpayable",
      "type": "function"
    },
    {
      "inputs": [
        {
          "internalType": "address",
          "name": "_authorAddress",
          "type": "address"
        }
      ],
      "name": "removeAuthorFromPublication",
      "outputs": [
        {
          "internalType": "bool",
          "name": "",
          "type": "bool"
        }
      ],
      "stateMutability": "nonpayable",
      "type": "function"
    },
    {
      "inputs": [
        {
          "internalType": "uint256",
          "name": "_articleId",
          "type": "uint256"
        },
        {
          "internalType": "bytes",
          "name": "_articleHash",
          "type": "bytes"
        }
      ],
      "name": "updateArticle",
      "outputs": [],
      "stateMutability": "nonpayable",
      "type": "function"
    },
    {
      "inputs": [],
      "name": "getArticles",
      "outputs": [
        {
          "components": [
            {
              "internalType": "string",
              "name": "articleName",
              "type": "string"
            },
            {
              "internalType": "address",
              "name": "authorAddress",
              "type": "address"
            },
            {
              "internalType": "address",
              "name": "publicationAddress",
              "type": "address"
            },
            {
              "internalType": "uint256",
              "name": "timePosted",
              "type": "uint256"
            },
            {
              "internalType": "uint256",
              "name": "timeUpdated",
              "type": "uint256"
            }
          ],
          "internalType": "struct Editor.Article[]",
          "name": "",
          "type": "tuple[]"
        }
      ],
      "stateMutability": "view",
      "type": "function",
      "constant": true
    },
    {
      "inputs": [
        {
          "internalType": "address",
          "name": "_authorAddress",
          "type": "address"
        }
      ],
      "name": "getArticleIdsFromAuthorAddress",
      "outputs": [
        {
          "internalType": "uint256[]",
          "name": "",
          "type": "uint256[]"
        }
      ],
      "stateMutability": "view",
      "type": "function",
      "constant": true
    },
    {
      "inputs": [],
      "name": "isRegisteredPublisher",
      "outputs": [
        {
          "internalType": "bool",
          "name": "",
          "type": "bool"
        }
      ],
      "stateMutability": "view",
      "type": "function",
      "constant": true
    }
  ],
  "bytecode": "0x60806040523480156200001157600080fd5b5062000032620000266200003860201b60201c565b6200004060201b60201c565b62000104565b600033905090565b60008060009054906101000a900473ffffffffffffffffffffffffffffffffffffffff169050816000806101000a81548173ffffffffffffffffffffffffffffffffffffffff021916908373ffffffffffffffffffffffffffffffffffffffff1602179055508173ffffffffffffffffffffffffffffffffffffffff168173ffffffffffffffffffffffffffffffffffffffff167f8be0079c531659141344cd1fd0a4f28419497f9722a3daafe3b4186f6b6457e060405160405180910390a35050565b6128a480620001146000396000f3fe608060405234801561001057600080fd5b50600436106100ce5760003560e01c8063715018a61161008c578063dca3e34611610066578063dca3e346146101d7578063edcfafe614610207578063f2fde38b1461023b578063f724b0b214610257576100ce565b8063715018a6146101935780637ae9637b1461019d5780638da5cb5b146101b9576100ce565b8062fd6bf7146100d35780631fd5bbab146100dd5780633f48bea91461010d5780634e5f4933146101295780636529f44a146101455780636663389114610163575b600080fd5b6100db610275565b005b6100f760048036038101906100f29190611c15565b6104b1565b6040516101049190611fe8565b60405180910390f35b61012760048036038101906101229190611b8a565b6104f0565b005b610143600480360381019061013e9190611c42565b610b3e565b005b61014d610d59565b60405161015a9190612003565b60405180910390f35b61017d60048036038101906101789190611b5d565b610f0a565b60405161018a9190612025565b60405180910390f35b61019b610fa1565b005b6101b760048036038101906101b29190611b5d565b611029565b005b6101c16112ce565b6040516101ce9190611fe8565b60405180910390f35b6101f160048036038101906101ec9190611b5d565b6112f7565b6040516101fe9190612047565b60405180910390f35b610221600480360381019061021c9190611c15565b611544565b604051610232959493929190612062565b60405180910390f35b61025560048036038101906102509190611b5d565b611652565b005b61025f61174a565b60405161026c9190612047565b60405180910390f35b3360006001905060005b60028054905081101561031657600281815481106102a05761029f6124d3565b5b9060005260206000200160009054906101000a900473ffffffffffffffffffffffffffffffffffffffff1673ffffffffffffffffffffffffffffffffffffffff168373ffffffffffffffffffffffffffffffffffffffff16141561030357600091505b808061030e9061242c565b91505061027f565b5080610357576040517f08c379a000000000000000000000000000000000000000000000000000000000815260040161034e9061213c565b60405180910390fd5b6000600460003373ffffffffffffffffffffffffffffffffffffffff1673ffffffffffffffffffffffffffffffffffffffff16815260200190815260200160002080549050146103dc576040517f08c379a00000000000000000000000000000000000000000000000000000000081526004016103d39061211c565b60405180910390fd5b6002339080600181540180825580915050600190039060005260206000200160009091909190916101000a81548173ffffffffffffffffffffffffffffffffffffffff021916908373ffffffffffffffffffffffffffffffffffffffff160217905550600061045a60016002805490506117f790919063ffffffff16565b90503373ffffffffffffffffffffffffffffffffffffffff167fdf888d7ef5027a4c5a75d67f940cba733410661403f7fdce05bcc7cdf8f7255282426040516104a49291906121bc565b60405180910390a2505050565b600281815481106104c157600080fd5b906000526020600020016000915054906101000a900473ffffffffffffffffffffffffffffffffffffffff1681565b3360006001905060005b600280549050811015610591576002818154811061051b5761051a6124d3565b5b9060005260206000200160009054906101000a900473ffffffffffffffffffffffffffffffffffffffff1673ffffffffffffffffffffffffffffffffffffffff168373ffffffffffffffffffffffffffffffffffffffff16141561057e57600091505b80806105899061242c565b9150506104fa565b50806105d2576040517f08c379a00000000000000000000000000000000000000000000000000000000081526004016105c99061213c565b60405180910390fd5b8260008073ffffffffffffffffffffffffffffffffffffffff168273ffffffffffffffffffffffffffffffffffffffff161415610612576001905061075a565b6000600660008473ffffffffffffffffffffffffffffffffffffffff1673ffffffffffffffffffffffffffffffffffffffff1681526020019081526020016000208054806020026020016040519081016040528092919081815260200182805480156106d357602002820191906000526020600020905b8160009054906101000a900473ffffffffffffffffffffffffffffffffffffffff1673ffffffffffffffffffffffffffffffffffffffff1681526020019060010190808311610689575b505050505090506000815111156107585760005b8151811015610756573373ffffffffffffffffffffffffffffffffffffffff1682828151811061071a576107196124d3565b5b602002602001015173ffffffffffffffffffffffffffffffffffffffff16141561074357600192505b808061074e9061242c565b9150506106e7565b505b505b8061079a576040517f08c379a00000000000000000000000000000000000000000000000000000000081526004016107919061219c565b60405180910390fd5b8660016107dc576040517f08c379a00000000000000000000000000000000000000000000000000000000081526004016107d39061215c565b60405180910390fd5b8560008073ffffffffffffffffffffffffffffffffffffffff168273ffffffffffffffffffffffffffffffffffffffff16141561081c57600190506108b8565b60005b6002805490508110156108b657600281815481106108405761083f6124d3565b5b9060005260206000200160009054906101000a900473ffffffffffffffffffffffffffffffffffffffff1673ffffffffffffffffffffffffffffffffffffffff168373ffffffffffffffffffffffffffffffffffffffff1614156108a357600191505b80806108ae9061242c565b91505061081f565b505b806108f8576040517f08c379a00000000000000000000000000000000000000000000000000000000081526004016108ef906120bc565b60405180910390fd5b60006040518060a001604052808b81526020013373ffffffffffffffffffffffffffffffffffffffff1681526020018a73ffffffffffffffffffffffffffffffffffffffff168152602001428152602001600081525090506001819080600181540180825580915050600190039060005260206000209060050201600090919091909150600082015181600001908051906020019061099892919061192a565b5060208201518160010160006101000a81548173ffffffffffffffffffffffffffffffffffffffff021916908373ffffffffffffffffffffffffffffffffffffffff16021790555060408201518160020160006101000a81548173ffffffffffffffffffffffffffffffffffffffff021916908373ffffffffffffffffffffffffffffffffffffffff160217905550606082015181600301556080820151816004015550506000610a57600180805490506117f790919063ffffffff16565b9050610a63818d61180d565b600460003373ffffffffffffffffffffffffffffffffffffffff1673ffffffffffffffffffffffffffffffffffffffff1681526020019081526020016000208190806001815401808255809150506001900390600052602060002001600090919091909150558973ffffffffffffffffffffffffffffffffffffffff163373ffffffffffffffffffffffffffffffffffffffff167f34e759819a3fd445432907256daa8d4ea43fb5fcd9b40305f43c7e188f3c245a8342604051610b289291906121bc565b60405180910390a3505050505050505050505050565b81600080600460003373ffffffffffffffffffffffffffffffffffffffff1673ffffffffffffffffffffffffffffffffffffffff168152602001908152602001600020805480602002602001604051908101604052809291908181526020018280548015610bcb57602002820191906000526020600020905b815481526020019060010190808311610bb7575b5050505050905060005b8151811015610c185783828281518110610bf257610bf16124d3565b5b60200260200101511415610c0557600192505b8080610c109061242c565b915050610bd5565b5081610c59576040517f08c379a0000000000000000000000000000000000000000000000000000000008152600401610c50906120fc565b60405180910390fd5b836001610c9b576040517f08c379a0000000000000000000000000000000000000000000000000000000008152600401610c929061215c565b60405180910390fd5b610ca5868661180d565b60018681548110610cb957610cb86124d3565b5b906000526020600020906005020160020160009054906101000a900473ffffffffffffffffffffffffffffffffffffffff1673ffffffffffffffffffffffffffffffffffffffff163373ffffffffffffffffffffffffffffffffffffffff167f516404cb7dcfb406fc9e1ab47753e57bf01d7ce5016efefe1d472be69817a89d8842604051610d499291906121bc565b60405180910390a3505050505050565b60606001805480602002602001604051908101604052809291908181526020016000905b82821015610f0157838290600052602060002090600502016040518060a0016040529081600082018054610db0906123c9565b80601f0160208091040260200160405190810160405280929190818152602001828054610ddc906123c9565b8015610e295780601f10610dfe57610100808354040283529160200191610e29565b820191906000526020600020905b815481529060010190602001808311610e0c57829003601f168201915b505050505081526020016001820160009054906101000a900473ffffffffffffffffffffffffffffffffffffffff1673ffffffffffffffffffffffffffffffffffffffff1673ffffffffffffffffffffffffffffffffffffffff1681526020016002820160009054906101000a900473ffffffffffffffffffffffffffffffffffffffff1673ffffffffffffffffffffffffffffffffffffffff1673ffffffffffffffffffffffffffffffffffffffff1681526020016003820154815260200160048201548152505081526020019060010190610d7d565b50505050905090565b6060600460008373ffffffffffffffffffffffffffffffffffffffff1673ffffffffffffffffffffffffffffffffffffffff168152602001908152602001600020805480602002602001604051908101604052809291908181526020018280548015610f9557602002820191906000526020600020905b815481526020019060010190808311610f81575b50505050509050919050565b610fa961185e565b73ffffffffffffffffffffffffffffffffffffffff16610fc76112ce565b73ffffffffffffffffffffffffffffffffffffffff161461101d576040517f08c379a00000000000000000000000000000000000000000000000000000000081526004016110149061217c565b60405180910390fd5b6110276000611866565b565b3360008073ffffffffffffffffffffffffffffffffffffffff168273ffffffffffffffffffffffffffffffffffffffff1614156110695760019050611105565b60005b600280549050811015611103576002818154811061108d5761108c6124d3565b5b9060005260206000200160009054906101000a900473ffffffffffffffffffffffffffffffffffffffff1673ffffffffffffffffffffffffffffffffffffffff168373ffffffffffffffffffffffffffffffffffffffff1614156110f057600191505b80806110fb9061242c565b91505061106c565b505b80611145576040517f08c379a000000000000000000000000000000000000000000000000000000000815260040161113c906120bc565b60405180910390fd5b8260006001905060005b6002805490508110156111e657600281815481106111705761116f6124d3565b5b9060005260206000200160009054906101000a900473ffffffffffffffffffffffffffffffffffffffff1673ffffffffffffffffffffffffffffffffffffffff168373ffffffffffffffffffffffffffffffffffffffff1614156111d357600091505b80806111de9061242c565b91505061114f565b5080611227576040517f08c379a000000000000000000000000000000000000000000000000000000000815260040161121e9061213c565b60405180910390fd5b600660003373ffffffffffffffffffffffffffffffffffffffff1673ffffffffffffffffffffffffffffffffffffffff168152602001908152602001600020859080600181540180825580915050600190039060005260206000200160009091909190916101000a81548173ffffffffffffffffffffffffffffffffffffffff021916908373ffffffffffffffffffffffffffffffffffffffff1602179055505050505050565b60008060009054906101000a900473ffffffffffffffffffffffffffffffffffffffff16905090565b60003360008073ffffffffffffffffffffffffffffffffffffffff168273ffffffffffffffffffffffffffffffffffffffff16141561133957600190506113d5565b60005b6002805490508110156113d3576002818154811061135d5761135c6124d3565b5b9060005260206000200160009054906101000a900473ffffffffffffffffffffffffffffffffffffffff1673ffffffffffffffffffffffffffffffffffffffff168373ffffffffffffffffffffffffffffffffffffffff1614156113c057600191505b80806113cb9061242c565b91505061133c565b505b80611415576040517f08c379a000000000000000000000000000000000000000000000000000000000815260040161140c906120bc565b60405180910390fd5b6000600660003373ffffffffffffffffffffffffffffffffffffffff1673ffffffffffffffffffffffffffffffffffffffff168152602001908152602001600020905060005b8180549050811015611536578573ffffffffffffffffffffffffffffffffffffffff16828281548110611491576114906124d3565b5b9060005260206000200160009054906101000a900473ffffffffffffffffffffffffffffffffffffffff1673ffffffffffffffffffffffffffffffffffffffff161415611523578181815481106114eb576114ea6124d3565b5b9060005260206000200160006101000a81549073ffffffffffffffffffffffffffffffffffffffff021916905560019450505061153d565b808061152e9061242c565b91505061145b565b5060009350505b5050919050565b6001818154811061155457600080fd5b9060005260206000209060050201600091509050806000018054611577906123c9565b80601f01602080910402602001604051908101604052809291908181526020018280546115a3906123c9565b80156115f05780601f106115c5576101008083540402835291602001916115f0565b820191906000526020600020905b8154815290600101906020018083116115d357829003601f168201915b5050505050908060010160009054906101000a900473ffffffffffffffffffffffffffffffffffffffff16908060020160009054906101000a900473ffffffffffffffffffffffffffffffffffffffff16908060030154908060040154905085565b61165a61185e565b73ffffffffffffffffffffffffffffffffffffffff166116786112ce565b73ffffffffffffffffffffffffffffffffffffffff16146116ce576040517f08c379a00000000000000000000000000000000000000000000000000000000081526004016116c59061217c565b60405180910390fd5b600073ffffffffffffffffffffffffffffffffffffffff168173ffffffffffffffffffffffffffffffffffffffff16141561173e576040517f08c379a0000000000000000000000000000000000000000000000000000000008152600401611735906120dc565b60405180910390fd5b61174781611866565b50565b600080600090505b6002805490508110156117ee5760028181548110611773576117726124d3565b5b9060005260206000200160009054906101000a900473ffffffffffffffffffffffffffffffffffffffff1673ffffffffffffffffffffffffffffffffffffffff163373ffffffffffffffffffffffffffffffffffffffff1614156117db5760019150506117f4565b80806117e69061242c565b915050611752565b50600090505b90565b60008183611805919061230b565b905092915050565b60036000838152602001908152602001600020819080600181540180825580915050600190039060005260206000200160009091909190915090805190602001906118599291906119b0565b505050565b600033905090565b60008060009054906101000a900473ffffffffffffffffffffffffffffffffffffffff169050816000806101000a81548173ffffffffffffffffffffffffffffffffffffffff021916908373ffffffffffffffffffffffffffffffffffffffff1602179055508173ffffffffffffffffffffffffffffffffffffffff168173ffffffffffffffffffffffffffffffffffffffff167f8be0079c531659141344cd1fd0a4f28419497f9722a3daafe3b4186f6b6457e060405160405180910390a35050565b828054611936906123c9565b90600052602060002090601f016020900481019282611958576000855561199f565b82601f1061197157805160ff191683800117855561199f565b8280016001018555821561199f579182015b8281111561199e578251825591602001919060010190611983565b5b5090506119ac9190611a36565b5090565b8280546119bc906123c9565b90600052602060002090601f0160209004810192826119de5760008555611a25565b82601f106119f757805160ff1916838001178555611a25565b82800160010185558215611a25579182015b82811115611a24578251825591602001919060010190611a09565b5b509050611a329190611a36565b5090565b5b80821115611a4f576000816000905550600101611a37565b5090565b6000611a66611a618461220a565b6121e5565b905082815260208101848484011115611a8257611a81612536565b5b611a8d848285612387565b509392505050565b6000611aa8611aa38461223b565b6121e5565b905082815260208101848484011115611ac457611ac3612536565b5b611acf848285612387565b509392505050565b600081359050611ae681612840565b92915050565b600082601f830112611b0157611b00612531565b5b8135611b11848260208601611a53565b91505092915050565b600082601f830112611b2f57611b2e612531565b5b8135611b3f848260208601611a95565b91505092915050565b600081359050611b5781612857565b92915050565b600060208284031215611b7357611b72612540565b5b6000611b8184828501611ad7565b91505092915050565b600080600060608486031215611ba357611ba2612540565b5b600084013567ffffffffffffffff811115611bc157611bc061253b565b5b611bcd86828701611aec565b935050602084013567ffffffffffffffff811115611bee57611bed61253b565b5b611bfa86828701611b1a565b9250506040611c0b86828701611ad7565b9150509250925092565b600060208284031215611c2b57611c2a612540565b5b6000611c3984828501611b48565b91505092915050565b60008060408385031215611c5957611c58612540565b5b6000611c6785828601611b48565b925050602083013567ffffffffffffffff811115611c8857611c8761253b565b5b611c9485828601611aec565b9150509250929050565b6000611caa8383611f54565b905092915050565b6000611cbe8383611fca565b60208301905092915050565b611cd38161233f565b82525050565b611ce28161233f565b82525050565b6000611cf38261228c565b611cfd81856122c7565b935083602082028501611d0f8561226c565b8060005b85811015611d4b5784840389528151611d2c8582611c9e565b9450611d37836122ad565b925060208a01995050600181019050611d13565b50829750879550505050505092915050565b6000611d6882612297565b611d7281856122d8565b9350611d7d8361227c565b8060005b83811015611dae578151611d958882611cb2565b9750611da0836122ba565b925050600181019050611d81565b5085935050505092915050565b611dc481612351565b82525050565b6000611dd5826122a2565b611ddf81856122e9565b9350611def818560208601612396565b611df881612545565b840191505092915050565b6000611e0e826122a2565b611e1881856122fa565b9350611e28818560208601612396565b611e3181612545565b840191505092915050565b6000611e496060836122fa565b9150611e5482612556565b606082019050919050565b6000611e6c6026836122fa565b9150611e77826125cb565b604082019050919050565b6000611e8f6027836122fa565b9150611e9a8261261a565b604082019050919050565b6000611eb26065836122fa565b9150611ebd82612669565b608082019050919050565b6000611ed5602a836122fa565b9150611ee082612704565b604082019050919050565b6000611ef8601b836122fa565b9150611f0382612753565b602082019050919050565b6000611f1b6020836122fa565b9150611f268261277c565b602082019050919050565b6000611f3e6076836122fa565b9150611f49826127a5565b608082019050919050565b600060a0830160008301518482036000860152611f718282611dca565b9150506020830151611f866020860182611cca565b506040830151611f996040860182611cca565b506060830151611fac6060860182611fca565b506080830151611fbf6080860182611fca565b508091505092915050565b611fd38161237d565b82525050565b611fe28161237d565b82525050565b6000602082019050611ffd6000830184611cd9565b92915050565b6000602082019050818103600083015261201d8184611ce8565b905092915050565b6000602082019050818103600083015261203f8184611d5d565b905092915050565b600060208201905061205c6000830184611dbb565b92915050565b600060a082019050818103600083015261207c8188611e03565b905061208b6020830187611cd9565b6120986040830186611cd9565b6120a56060830185611fd9565b6120b26080830184611fd9565b9695505050505050565b600060208201905081810360008301526120d581611e3c565b9050919050565b600060208201905081810360008301526120f581611e5f565b9050919050565b6000602082019050818103600083015261211581611e82565b9050919050565b6000602082019050818103600083015261213581611ea5565b9050919050565b6000602082019050818103600083015261215581611ec8565b9050919050565b6000602082019050818103600083015261217581611eeb565b9050919050565b6000602082019050818103600083015261219581611f0e565b9050919050565b600060208201905081810360008301526121b581611f31565b9050919050565b60006040820190506121d16000830185611fd9565b6121de6020830184611fd9565b9392505050565b60006121ef612200565b90506121fb82826123fb565b919050565b6000604051905090565b600067ffffffffffffffff82111561222557612224612502565b5b61222e82612545565b9050602081019050919050565b600067ffffffffffffffff82111561225657612255612502565b5b61225f82612545565b9050602081019050919050565b6000819050602082019050919050565b6000819050602082019050919050565b600081519050919050565b600081519050919050565b600081519050919050565b6000602082019050919050565b6000602082019050919050565b600082825260208201905092915050565b600082825260208201905092915050565b600082825260208201905092915050565b600082825260208201905092915050565b60006123168261237d565b91506123218361237d565b92508282101561233457612333612475565b5b828203905092915050565b600061234a8261235d565b9050919050565b60008115159050919050565b600073ffffffffffffffffffffffffffffffffffffffff82169050919050565b6000819050919050565b82818337600083830152505050565b60005b838110156123b4578082015181840152602081019050612399565b838111156123c3576000848401525b50505050565b600060028204905060018216806123e157607f821691505b602082108114156123f5576123f46124a4565b5b50919050565b61240482612545565b810181811067ffffffffffffffff8211171561242357612422612502565b5b80604052505050565b60006124378261237d565b91507fffffffffffffffffffffffffffffffffffffffffffffffffffffffffffffffff82141561246a57612469612475565b5b600182019050919050565b7f4e487b7100000000000000000000000000000000000000000000000000000000600052601160045260246000fd5b7f4e487b7100000000000000000000000000000000000000000000000000000000600052602260045260246000fd5b7f4e487b7100000000000000000000000000000000000000000000000000000000600052603260045260246000fd5b7f4e487b7100000000000000000000000000000000000000000000000000000000600052604160045260246000fd5b600080fd5b600080fd5b600080fd5b600080fd5b6000601f19601f8301169050919050565b7f4554482061646472657373206973206e6f74206120726567697374657265642060008201527f7075626c69636174696f6e2e20437265617465206f6e65206f7220686176652060208201527f61207075626c69736865722061646420796f7520746f20746865207465616d2e604082015250565b7f4f776e61626c653a206e6577206f776e657220697320746865207a65726f206160008201527f6464726573730000000000000000000000000000000000000000000000000000602082015250565b7f596f7520617265206e6f742074686520617574686f72206f662074686973206160008201527f727469636c652e00000000000000000000000000000000000000000000000000602082015250565b7f596f75206861766520616c726561647920617574686f72656420616e2061727460008201527f69636c652e205369676e20696e207769746820616e6f7468657220455448206160208201527f63636f756e7420746f206372656174652061207075626c69736865722061636360408201527f6f756e742e000000000000000000000000000000000000000000000000000000606082015250565b7f4163636f756e7420616c7265616479207265676973746572656420617320612060008201527f7075626c69736865722e00000000000000000000000000000000000000000000602082015250565b7f496e76616c6964204950465320686173682070726f76696465642e0000000000600082015250565b7f4f776e61626c653a2063616c6c6572206973206e6f7420746865206f776e6572600082015250565b7f596f75206e6f742061206d656d626572206f6620746865207075626c6963617460008201527f696f6e2e20436865636b20666f722061646472657373206572726f72732e204160208201527f736b207075626c69636174696f6e206f776e657220746f2061646420796f757260408201527f206164647265737320617320616e20617574686f722e00000000000000000000606082015250565b6128498161233f565b811461285457600080fd5b50565b6128608161237d565b811461286b57600080fd5b5056fea26469706673582212206fffbe108f74fb8e2590777bea9fd61af51a7ee061db72b597cd91a30081c37564736f6c63430008070033",
  "immutableReferences": {},
  "source": "pragma solidity ^0.8.0;\n\nimport \"../client/node_modules/@openzeppelin/contracts/access/Ownable.sol\";\nimport \"../client/node_modules/@openzeppelin/contracts/utils/math/SafeMath.sol\";\n\n/// @title Main parent contract\n/// @author Griffin Sharp & Riley Campbell\n/// @notice TBD\n/// @dev TBD\ncontract Editor is Ownable {\n    // TO-DO: Remove any uint's not being used.\n    // Opitmize uintXXX for smaller values wherever possible (uint256 -> uint16)\n    using SafeMath for uint256;\n    using SafeMath for uint32;\n    using SafeMath for uint16;\n\n    // EVENTS ---\n    // Emitted when article is first created.\n    event ArticlePosted(\n        uint articleId,\n        uint timePosted,\n        address indexed authoraddress,\n        address indexed publicationAddress\n    );\n\n    // Emitted when article is updated.\n    event ArticleEdited(\n        uint articleId,\n        uint timeUpdated,\n        address indexed authorAddress,\n        address indexed publicationAddress\n    );\n\n    event publicationCreated(\n        uint publicationId,\n        uint timeCreated,\n        address indexed publicationAddress\n    );\n\n    struct Article {\n        string articleName;\n        address authorAddress;\n        address publicationAddress;\n        uint timePosted;\n        uint timeUpdated;\n    }\n\n    // VARIABLES ---\n    Article[] public articles;\n    address[] public publications;\n\n    // Mapping of articleId to IPFS hashes of the article.\n    mapping(uint => bytes[]) articleIdToHashes;\n    // Mapping of author address to the ids of each article they have authored.\n    mapping(address => uint[]) authorAddressToArticleIds;\n\n    // Mapping of publicationId to article ids.\n    mapping(uint => uint[]) publicationIdToArticleIds;\n    // Mapping of publicationId to approved authors.\n    mapping(address => address[]) publicationAddressToAuthors;\n\n    // MODIFIERS ---\n\n    // Checks to see if the caller is the author of the article.\n    modifier onlyAuthorOfArticle(uint _articleId) {\n        bool isAuthor = false;\n        uint[] memory authoredArticles = authorAddressToArticleIds[msg.sender];\n\n        for(uint i=0; i < authoredArticles.length; i++) {\n            if (authoredArticles[i] == _articleId) {\n                isAuthor = true;\n            }\n        }\n\n        require(isAuthor, \"You are not the author of this article.\");\n        _;\n    }\n\n    // Checks to see if the author has NOT created an article yet/still default value.\n    modifier isNotAnAuthor() {\n        require(authorAddressToArticleIds[msg.sender].length == 0, \"You have already authored an article. Sign in with another ETH account to create a publisher account.\");\n        _;\n    }\n\n    // Address provided is not a publication.\n    modifier isNotAPublisher(address _address) {\n        bool isNotPublisher = true;\n\n        for (uint i=0; i < publications.length; i++) {\n            if (_address == publications[i]) {\n                isNotPublisher = false;\n            }\n        }\n\n        require(isNotPublisher, \"Account already registered as a publisher.\");\n        _;\n    }\n\n    // Checks to see if the publicationId provided is registered or the 0x0 address (self-published).\n    modifier publicationValid(address _publicationAddress) {\n        bool isPublication = false;\n\n        if (_publicationAddress == address(0)) {\n            isPublication = true;\n        } else {\n            for (uint i=0; i < publications.length; i++) {\n                if (_publicationAddress == publications[i]) {\n                    isPublication = true;\n                }\n            }\n        }\n\n        require(isPublication, \"ETH address is not a registered publication. Create one or have a publisher add you to the team.\");\n        _;\n    }\n\n    // Checks if user calling the function is on the publication's approved author list\n    modifier isMemberOfPublication(address _publicationAddress) {\n        bool isMember = false;\n\n        if (_publicationAddress == address(0)) {\n            isMember = true;\n        } else {\n            address[] memory approvedAuthors = publicationAddressToAuthors[_publicationAddress];\n            if (approvedAuthors.length > 0) {\n                for (uint i=0; i < approvedAuthors.length; i++) {\n                    if (approvedAuthors[i] == msg.sender) {\n                        isMember = true;\n                    }\n                }\n            }\n        }\n\n        require(isMember, \"You not a member of the publication. Check for address errors. Ask publication owner to add your address as an author.\");\n        _;\n    }\n\n    // TO-DO:\n    // Validates IPFS hash\n    modifier isValidHash(bytes memory _ipfsHash) {\n        require(true, \"Invalid IPFS hash provided.\");\n        _;\n    }\n\n    // PUBLIC FUNCTIONS ---\n    /// @notice Adds an author to a publication's approved authors. Can only be called by a publication.\n    /// @dev We only check if its a publication, not a specific publication, since we use msg.sender to add to the authors array. Only adds non-publishers.\n    /// @param _authorAddress The address of the author to be added.\n    function addAuthorToPublication(address _authorAddress) public publicationValid(msg.sender) isNotAPublisher(_authorAddress) {\n        publicationAddressToAuthors[msg.sender].push(_authorAddress);\n    }\n\n    /// @notice Creates a publisher account.\n    /** @dev Checks for if a user is already reigstered as a publisher AND if they haven't authored an article yet.\n    Checks authorAddressToArticleIds and loops though publishers. There is no createAuthor or authors array to save authors gas. */\n    function createPublication() public isNotAPublisher(msg.sender) isNotAnAuthor {\n        publications.push(msg.sender);\n        uint id = publications.length.sub(1);\n        emit publicationCreated({\n            publicationId: id,\n            timeCreated: block.timestamp,\n            publicationAddress: msg.sender\n        });\n    }\n\n    /// @notice Posts a new article to IPFS\n    /// @dev Checks if user is a member of the publication. UI should tell user to use 0x0 address if self-published or to create their own publisher account.\n    /// @param _articleHash IPFS hash of text written by the author\n    /// @param _publicationAddress Address of the publication\n    function postArticle(\n        bytes memory _articleHash,\n        string memory _articleName,\n        address _publicationAddress\n    )\n        public\n        isNotAPublisher(msg.sender)\n        isMemberOfPublication(_publicationAddress)\n        isValidHash(_articleHash)\n        publicationValid(_publicationAddress)\n    {\n        // TO-DO: Run modifier to check for valid hash\n\n        Article memory newArticle = Article({\n            articleName: _articleName,\n            authorAddress: msg.sender,\n            publicationAddress: _publicationAddress,\n            timePosted: block.timestamp,\n            timeUpdated: 0\n        });\n\n        articles.push(newArticle);\n        uint256 articleId = (articles.length).sub(1);\n\n        _addArticleHash(articleId, _articleHash);\n        authorAddressToArticleIds[msg.sender].push(articleId);\n\n        emit ArticlePosted(articleId, block.timestamp, msg.sender, _publicationAddress);\n    }\n\n    /// @notice Removes author from a publication's approved authors. Can only be called by publication.\n    /** @dev Use the return value (bool) to display on the UI a success or failure message. Remove return val if not necessary.\n    Delete inserts the default value back, so it will be 0x0. May have to filter this out on the FE. */\n    /// @param _authorAddress The address of the author to be removed.\n    /// @return Returns true is successfully removed. False is not removed.\n    function removeAuthorFromPublication(address _authorAddress) public publicationValid(msg.sender) returns(bool) {\n        address[] storage authorsArray = publicationAddressToAuthors[msg.sender];\n        for (uint i=0; i < authorsArray.length; i++) {\n            if (authorsArray[i] == _authorAddress) {\n                delete authorsArray[i];\n                return true;\n            }\n        }\n\n        return false;\n    }\n\n    /// @notice Updates an article already uploaded to IPFS by adding new hash\n    /** @dev Only the author may call this fn. Right now, isMemberOfPublication only runs on creation (not on update).\n    Debating adding it here to prevent rogue ex-official authors from sabotage editing, but I also want authors to have full autonomy over their work. */\n    /// @param _articleId The id of the article being updated\n    /// @param _articleHash The hash of the new version of the article's text\n    function updateArticle(uint _articleId, bytes memory _articleHash) public onlyAuthorOfArticle(_articleId) isValidHash(_articleHash) {\n        _addArticleHash(_articleId, _articleHash);\n        emit ArticleEdited(_articleId, block.timestamp, msg.sender, articles[_articleId].publicationAddress);\n    }\n\n    /// @notice Getter function for the articles.\n    /// @dev Returns the public 'articles' variable.\n    /// @return Array of all articles.\n    function getArticles() public view returns(Article[] memory) {\n        return articles;\n    }\n\n    /// @notice Getter function authorAddressToArticleIds mapping.\n    /// @dev Returns the public 'articles' variable.\n    /// @return Array of all articles.\n    function getArticleIdsFromAuthorAddress(address _authorAddress) public view returns(uint[] memory) {\n        return authorAddressToArticleIds[_authorAddress];\n    }\n\n    /// @notice View function that checks if the current user is a publisher account.\n    /// @dev Used via UI ONLY. Use modifiers for function checks.\n    /// @return True if publisher account. False is not.\n    function isRegisteredPublisher() public view returns(bool) {\n        for (uint i=0; i < publications.length; i++) {\n            if (msg.sender == publications[i]) {\n                return true;\n            }\n        }\n\n        return false;\n    }\n\n    // PRIVATE FUNCTIONS ---\n    /// @notice Updates an article already uploaded to IPFS.\n    /// @dev\n    /// @param _articleId The id of the article\n    /// @param _articleHash The hash of the article's text\n    function _addArticleHash(uint _articleId, bytes memory _articleHash) private {\n        articleIdToHashes[_articleId].push(_articleHash);\n    }\n}\n",
  "sourcePath": "/Users/griff/Desktop/ipfs-journal/contracts/Editor.sol",
  "compiler": {
    "name": "solc",
    "version": "0.8.7+commit.e28d00a7.Emscripten.clang"
  },
  "schemaVersion": "3.4.1",
  "updatedAt": "2021-08-13T06:49:12.811Z",
  "networkType": "ethereum",
  "devdoc": {
    "author": "Griffin Sharp & Riley Campbell",
    "details": "TBD",
    "kind": "dev",
    "methods": {
      "addAuthorToPublication(address)": {
        "details": "We only check if its a publication, not a specific publication, since we use msg.sender to add to the authors array. Only adds non-publishers.",
        "params": {
          "_authorAddress": "The address of the author to be added."
        }
      },
      "createPublication()": {
        "details": "Checks for if a user is already reigstered as a publisher AND if they haven't authored an article yet. Checks authorAddressToArticleIds and loops though publishers. There is no createAuthor or authors array to save authors gas. "
      },
      "getArticleIdsFromAuthorAddress(address)": {
        "details": "Returns the public 'articles' variable.",
        "returns": {
          "_0": "Array of all articles."
        }
      },
      "getArticles()": {
        "details": "Returns the public 'articles' variable.",
        "returns": {
          "_0": "Array of all articles."
        }
      },
      "isRegisteredPublisher()": {
        "details": "Used via UI ONLY. Use modifiers for function checks.",
        "returns": {
          "_0": "True if publisher account. False is not."
        }
      },
      "owner()": {
        "details": "Returns the address of the current owner."
      },
      "postArticle(bytes,string,address)": {
        "details": "Checks if user is a member of the publication. UI should tell user to use 0x0 address if self-published or to create their own publisher account.",
        "params": {
          "_articleHash": "IPFS hash of text written by the author",
          "_publicationAddress": "Address of the publication"
        }
      },
      "removeAuthorFromPublication(address)": {
        "params": {
          "_authorAddress": "The address of the author to be removed."
        },
        "returns": {
          "_0": "Returns true is successfully removed. False is not removed."
        }
      },
      "renounceOwnership()": {
        "details": "Leaves the contract without owner. It will not be possible to call `onlyOwner` functions anymore. Can only be called by the current owner. NOTE: Renouncing ownership will leave the contract without an owner, thereby removing any functionality that is only available to the owner."
      },
      "transferOwnership(address)": {
        "details": "Transfers ownership of the contract to a new account (`newOwner`). Can only be called by the current owner."
      },
      "updateArticle(uint256,bytes)": {
        "params": {
          "_articleHash": "The hash of the new version of the article's text",
          "_articleId": "The id of the article being updated"
        }
      }
    },
    "title": "Main parent contract",
    "version": 1
  },
  "userdoc": {
    "kind": "user",
    "methods": {
      "addAuthorToPublication(address)": {
        "notice": "Adds an author to a publication's approved authors. Can only be called by a publication."
      },
      "getArticleIdsFromAuthorAddress(address)": {
        "notice": "Getter function authorAddressToArticleIds mapping."
      },
      "getArticles()": {
        "notice": "Getter function for the articles."
      },
      "isRegisteredPublisher()": {
        "notice": "View function that checks if the current user is a publisher account."
      },
      "postArticle(bytes,string,address)": {
        "notice": "Posts a new article to IPFS"
      }
    },
    "notice": "TBD",
    "version": 1
  }
}