{
  "contractName": "Editor",
  "abi": [
    {
      "anonymous": false,
      "inputs": [
        {
          "indexed": false,
          "internalType": "uint256",
          "name": "articleId",
          "type": "uint256"
        },
        {
          "indexed": false,
          "internalType": "uint256",
          "name": "timeUpdated",
          "type": "uint256"
        },
        {
          "indexed": true,
          "internalType": "address",
          "name": "authorAddress",
          "type": "address"
        },
        {
          "indexed": true,
          "internalType": "address",
          "name": "publicationAddress",
          "type": "address"
        }
      ],
      "name": "ArticleEdited",
      "type": "event"
    },
    {
      "anonymous": false,
      "inputs": [
        {
          "indexed": false,
          "internalType": "uint256",
          "name": "articleId",
          "type": "uint256"
        },
        {
          "indexed": false,
          "internalType": "uint256",
          "name": "timePosted",
          "type": "uint256"
        },
        {
          "indexed": true,
          "internalType": "address",
          "name": "authoraddress",
          "type": "address"
        },
        {
          "indexed": true,
          "internalType": "address",
          "name": "publicationAddress",
          "type": "address"
        }
      ],
      "name": "ArticlePosted",
      "type": "event"
    },
    {
      "anonymous": false,
      "inputs": [
        {
          "indexed": true,
          "internalType": "address",
          "name": "previousOwner",
          "type": "address"
        },
        {
          "indexed": true,
          "internalType": "address",
          "name": "newOwner",
          "type": "address"
        }
      ],
      "name": "OwnershipTransferred",
      "type": "event"
    },
    {
      "anonymous": false,
      "inputs": [
        {
          "indexed": false,
          "internalType": "uint256",
          "name": "publicationId",
          "type": "uint256"
        },
        {
          "indexed": false,
          "internalType": "uint256",
          "name": "timeCreated",
          "type": "uint256"
        },
        {
          "indexed": true,
          "internalType": "address",
          "name": "publicationAddress",
          "type": "address"
        }
      ],
      "name": "publicationCreated",
      "type": "event"
    },
    {
      "inputs": [
        {
          "internalType": "uint256",
          "name": "",
          "type": "uint256"
        }
      ],
      "name": "articles",
      "outputs": [
        {
          "internalType": "string",
          "name": "articleName",
          "type": "string"
        },
        {
          "internalType": "address",
          "name": "authorAddress",
          "type": "address"
        },
        {
          "internalType": "address",
          "name": "publicationAddress",
          "type": "address"
        },
        {
          "internalType": "uint256",
          "name": "timePosted",
          "type": "uint256"
        },
        {
          "internalType": "uint256",
          "name": "timeUpdated",
          "type": "uint256"
        }
      ],
      "stateMutability": "view",
      "type": "function",
      "constant": true
    },
    {
      "inputs": [],
      "name": "owner",
      "outputs": [
        {
          "internalType": "address",
          "name": "",
          "type": "address"
        }
      ],
      "stateMutability": "view",
      "type": "function",
      "constant": true
    },
    {
      "inputs": [
        {
          "internalType": "uint256",
          "name": "",
          "type": "uint256"
        }
      ],
      "name": "publications",
      "outputs": [
        {
          "internalType": "address",
          "name": "",
          "type": "address"
        }
      ],
      "stateMutability": "view",
      "type": "function",
      "constant": true
    },
    {
      "inputs": [],
      "name": "renounceOwnership",
      "outputs": [],
      "stateMutability": "nonpayable",
      "type": "function"
    },
    {
      "inputs": [
        {
          "internalType": "address",
          "name": "newOwner",
          "type": "address"
        }
      ],
      "name": "transferOwnership",
      "outputs": [],
      "stateMutability": "nonpayable",
      "type": "function"
    },
    {
      "inputs": [
        {
          "internalType": "address",
          "name": "_authorAddress",
          "type": "address"
        }
      ],
      "name": "addAuthorToPublication",
      "outputs": [],
      "stateMutability": "nonpayable",
      "type": "function"
    },
    {
      "inputs": [],
      "name": "createPublication",
      "outputs": [],
      "stateMutability": "nonpayable",
      "type": "function"
    },
    {
      "inputs": [
        {
          "internalType": "bytes",
          "name": "_articleHash",
          "type": "bytes"
        },
        {
          "internalType": "string",
          "name": "_articleName",
          "type": "string"
        },
        {
          "internalType": "address",
          "name": "_publicationAddress",
          "type": "address"
        }
      ],
      "name": "postArticle",
      "outputs": [],
      "stateMutability": "nonpayable",
      "type": "function"
    },
    {
      "inputs": [
        {
          "internalType": "address",
          "name": "_authorAddress",
          "type": "address"
        }
      ],
      "name": "removeAuthorFromPublication",
      "outputs": [
        {
          "internalType": "bool",
          "name": "",
          "type": "bool"
        }
      ],
      "stateMutability": "nonpayable",
      "type": "function"
    },
    {
      "inputs": [
        {
          "internalType": "uint256",
          "name": "_articleId",
          "type": "uint256"
        },
        {
          "internalType": "bytes",
          "name": "_articleHash",
          "type": "bytes"
        }
      ],
      "name": "updateArticle",
      "outputs": [],
      "stateMutability": "nonpayable",
      "type": "function"
    },
    {
      "inputs": [],
      "name": "isRegisteredPublisher",
      "outputs": [
        {
          "internalType": "bool",
          "name": "",
          "type": "bool"
        }
      ],
      "stateMutability": "view",
      "type": "function",
      "constant": true
    },
    {
      "inputs": [],
      "name": "getArticles",
      "outputs": [
        {
          "components": [
            {
              "internalType": "string",
              "name": "articleName",
              "type": "string"
            },
            {
              "internalType": "address",
              "name": "authorAddress",
              "type": "address"
            },
            {
              "internalType": "address",
              "name": "publicationAddress",
              "type": "address"
            },
            {
              "internalType": "uint256",
              "name": "timePosted",
              "type": "uint256"
            },
            {
              "internalType": "uint256",
              "name": "timeUpdated",
              "type": "uint256"
            }
          ],
          "internalType": "struct Editor.Article[]",
          "name": "",
          "type": "tuple[]"
        }
      ],
      "stateMutability": "nonpayable",
      "type": "function"
    }
  ],
  "bytecode": "0x60806040523480156200001157600080fd5b5062000032620000266200003860201b60201c565b6200004060201b60201c565b62000104565b600033905090565b60008060009054906101000a900473ffffffffffffffffffffffffffffffffffffffff169050816000806101000a81548173ffffffffffffffffffffffffffffffffffffffff021916908373ffffffffffffffffffffffffffffffffffffffff1602179055508173ffffffffffffffffffffffffffffffffffffffff168173ffffffffffffffffffffffffffffffffffffffff167f8be0079c531659141344cd1fd0a4f28419497f9722a3daafe3b4186f6b6457e060405160405180910390a35050565b6126f180620001146000396000f3fe608060405234801561001057600080fd5b50600436106100b35760003560e01c80637ae9637b116100715780637ae9637b146101525780638da5cb5b1461016e578063dca3e3461461018c578063edcfafe6146101bc578063f2fde38b146101f0578063f724b0b21461020c576100b3565b8062fd6bf7146100b85780631fd5bbab146100c25780633f48bea9146100f25780634e5f49331461010e5780636529f44a1461012a578063715018a614610148575b600080fd5b6100c061022a565b005b6100dc60048036038101906100d79190611b33565b610466565b6040516100e99190611e90565b60405180910390f35b61010c60048036038101906101079190611aa8565b6104a5565b005b61012860048036038101906101239190611b60565b610af3565b005b610132610d0e565b60405161013f9190611eab565b60405180910390f35b610150610ebf565b005b61016c60048036038101906101679190611a7b565b610f47565b005b6101766111ec565b6040516101839190611e90565b60405180910390f35b6101a660048036038101906101a19190611a7b565b611215565b6040516101b39190611ecd565b60405180910390f35b6101d660048036038101906101d19190611b33565b611462565b6040516101e7959493929190611ee8565b60405180910390f35b61020a60048036038101906102059190611a7b565b611570565b005b610214611668565b6040516102219190611ecd565b60405180910390f35b3360006001905060005b6002805490508110156102cb576002818154811061025557610254612320565b5b9060005260206000200160009054906101000a900473ffffffffffffffffffffffffffffffffffffffff1673ffffffffffffffffffffffffffffffffffffffff168373ffffffffffffffffffffffffffffffffffffffff1614156102b857600091505b80806102c390612279565b915050610234565b508061030c576040517f08c379a000000000000000000000000000000000000000000000000000000000815260040161030390611fc2565b60405180910390fd5b6000600460003373ffffffffffffffffffffffffffffffffffffffff1673ffffffffffffffffffffffffffffffffffffffff1681526020019081526020016000208054905014610391576040517f08c379a000000000000000000000000000000000000000000000000000000000815260040161038890611fa2565b60405180910390fd5b6002339080600181540180825580915050600190039060005260206000200160009091909190916101000a81548173ffffffffffffffffffffffffffffffffffffffff021916908373ffffffffffffffffffffffffffffffffffffffff160217905550600061040f600160028054905061171590919063ffffffff16565b90503373ffffffffffffffffffffffffffffffffffffffff167fdf888d7ef5027a4c5a75d67f940cba733410661403f7fdce05bcc7cdf8f725528242604051610459929190612042565b60405180910390a2505050565b6002818154811061047657600080fd5b906000526020600020016000915054906101000a900473ffffffffffffffffffffffffffffffffffffffff1681565b3360006001905060005b60028054905081101561054657600281815481106104d0576104cf612320565b5b9060005260206000200160009054906101000a900473ffffffffffffffffffffffffffffffffffffffff1673ffffffffffffffffffffffffffffffffffffffff168373ffffffffffffffffffffffffffffffffffffffff16141561053357600091505b808061053e90612279565b9150506104af565b5080610587576040517f08c379a000000000000000000000000000000000000000000000000000000000815260040161057e90611fc2565b60405180910390fd5b8260008073ffffffffffffffffffffffffffffffffffffffff168273ffffffffffffffffffffffffffffffffffffffff1614156105c7576001905061070f565b6000600660008473ffffffffffffffffffffffffffffffffffffffff1673ffffffffffffffffffffffffffffffffffffffff16815260200190815260200160002080548060200260200160405190810160405280929190818152602001828054801561068857602002820191906000526020600020905b8160009054906101000a900473ffffffffffffffffffffffffffffffffffffffff1673ffffffffffffffffffffffffffffffffffffffff168152602001906001019080831161063e575b5050505050905060008151111561070d5760005b815181101561070b573373ffffffffffffffffffffffffffffffffffffffff168282815181106106cf576106ce612320565b5b602002602001015173ffffffffffffffffffffffffffffffffffffffff1614156106f857600192505b808061070390612279565b91505061069c565b505b505b8061074f576040517f08c379a000000000000000000000000000000000000000000000000000000000815260040161074690612022565b60405180910390fd5b866001610791576040517f08c379a000000000000000000000000000000000000000000000000000000000815260040161078890611fe2565b60405180910390fd5b8560008073ffffffffffffffffffffffffffffffffffffffff168273ffffffffffffffffffffffffffffffffffffffff1614156107d1576001905061086d565b60005b60028054905081101561086b57600281815481106107f5576107f4612320565b5b9060005260206000200160009054906101000a900473ffffffffffffffffffffffffffffffffffffffff1673ffffffffffffffffffffffffffffffffffffffff168373ffffffffffffffffffffffffffffffffffffffff16141561085857600191505b808061086390612279565b9150506107d4565b505b806108ad576040517f08c379a00000000000000000000000000000000000000000000000000000000081526004016108a490611f42565b60405180910390fd5b60006040518060a001604052808b81526020013373ffffffffffffffffffffffffffffffffffffffff1681526020018a73ffffffffffffffffffffffffffffffffffffffff168152602001428152602001600081525090506001819080600181540180825580915050600190039060005260206000209060050201600090919091909150600082015181600001908051906020019061094d929190611848565b5060208201518160010160006101000a81548173ffffffffffffffffffffffffffffffffffffffff021916908373ffffffffffffffffffffffffffffffffffffffff16021790555060408201518160020160006101000a81548173ffffffffffffffffffffffffffffffffffffffff021916908373ffffffffffffffffffffffffffffffffffffffff160217905550606082015181600301556080820151816004015550506000610a0c6001808054905061171590919063ffffffff16565b9050610a18818d61172b565b600460003373ffffffffffffffffffffffffffffffffffffffff1673ffffffffffffffffffffffffffffffffffffffff1681526020019081526020016000208190806001815401808255809150506001900390600052602060002001600090919091909150558973ffffffffffffffffffffffffffffffffffffffff163373ffffffffffffffffffffffffffffffffffffffff167f34e759819a3fd445432907256daa8d4ea43fb5fcd9b40305f43c7e188f3c245a8342604051610add929190612042565b60405180910390a3505050505050505050505050565b81600080600460003373ffffffffffffffffffffffffffffffffffffffff1673ffffffffffffffffffffffffffffffffffffffff168152602001908152602001600020805480602002602001604051908101604052809291908181526020018280548015610b8057602002820191906000526020600020905b815481526020019060010190808311610b6c575b5050505050905060005b8151811015610bcd5783828281518110610ba757610ba6612320565b5b60200260200101511415610bba57600192505b8080610bc590612279565b915050610b8a565b5081610c0e576040517f08c379a0000000000000000000000000000000000000000000000000000000008152600401610c0590611f82565b60405180910390fd5b836001610c50576040517f08c379a0000000000000000000000000000000000000000000000000000000008152600401610c4790611fe2565b60405180910390fd5b610c5a868661172b565b60018681548110610c6e57610c6d612320565b5b906000526020600020906005020160020160009054906101000a900473ffffffffffffffffffffffffffffffffffffffff1673ffffffffffffffffffffffffffffffffffffffff163373ffffffffffffffffffffffffffffffffffffffff167f516404cb7dcfb406fc9e1ab47753e57bf01d7ce5016efefe1d472be69817a89d8842604051610cfe929190612042565b60405180910390a3505050505050565b60606001805480602002602001604051908101604052809291908181526020016000905b82821015610eb657838290600052602060002090600502016040518060a0016040529081600082018054610d6590612216565b80601f0160208091040260200160405190810160405280929190818152602001828054610d9190612216565b8015610dde5780601f10610db357610100808354040283529160200191610dde565b820191906000526020600020905b815481529060010190602001808311610dc157829003601f168201915b505050505081526020016001820160009054906101000a900473ffffffffffffffffffffffffffffffffffffffff1673ffffffffffffffffffffffffffffffffffffffff1673ffffffffffffffffffffffffffffffffffffffff1681526020016002820160009054906101000a900473ffffffffffffffffffffffffffffffffffffffff1673ffffffffffffffffffffffffffffffffffffffff1673ffffffffffffffffffffffffffffffffffffffff1681526020016003820154815260200160048201548152505081526020019060010190610d32565b50505050905090565b610ec761177c565b73ffffffffffffffffffffffffffffffffffffffff16610ee56111ec565b73ffffffffffffffffffffffffffffffffffffffff1614610f3b576040517f08c379a0000000000000000000000000000000000000000000000000000000008152600401610f3290612002565b60405180910390fd5b610f456000611784565b565b3360008073ffffffffffffffffffffffffffffffffffffffff168273ffffffffffffffffffffffffffffffffffffffff161415610f875760019050611023565b60005b6002805490508110156110215760028181548110610fab57610faa612320565b5b9060005260206000200160009054906101000a900473ffffffffffffffffffffffffffffffffffffffff1673ffffffffffffffffffffffffffffffffffffffff168373ffffffffffffffffffffffffffffffffffffffff16141561100e57600191505b808061101990612279565b915050610f8a565b505b80611063576040517f08c379a000000000000000000000000000000000000000000000000000000000815260040161105a90611f42565b60405180910390fd5b8260006001905060005b600280549050811015611104576002818154811061108e5761108d612320565b5b9060005260206000200160009054906101000a900473ffffffffffffffffffffffffffffffffffffffff1673ffffffffffffffffffffffffffffffffffffffff168373ffffffffffffffffffffffffffffffffffffffff1614156110f157600091505b80806110fc90612279565b91505061106d565b5080611145576040517f08c379a000000000000000000000000000000000000000000000000000000000815260040161113c90611fc2565b60405180910390fd5b600660003373ffffffffffffffffffffffffffffffffffffffff1673ffffffffffffffffffffffffffffffffffffffff168152602001908152602001600020859080600181540180825580915050600190039060005260206000200160009091909190916101000a81548173ffffffffffffffffffffffffffffffffffffffff021916908373ffffffffffffffffffffffffffffffffffffffff1602179055505050505050565b60008060009054906101000a900473ffffffffffffffffffffffffffffffffffffffff16905090565b60003360008073ffffffffffffffffffffffffffffffffffffffff168273ffffffffffffffffffffffffffffffffffffffff16141561125757600190506112f3565b60005b6002805490508110156112f1576002818154811061127b5761127a612320565b5b9060005260206000200160009054906101000a900473ffffffffffffffffffffffffffffffffffffffff1673ffffffffffffffffffffffffffffffffffffffff168373ffffffffffffffffffffffffffffffffffffffff1614156112de57600191505b80806112e990612279565b91505061125a565b505b80611333576040517f08c379a000000000000000000000000000000000000000000000000000000000815260040161132a90611f42565b60405180910390fd5b6000600660003373ffffffffffffffffffffffffffffffffffffffff1673ffffffffffffffffffffffffffffffffffffffff168152602001908152602001600020905060005b8180549050811015611454578573ffffffffffffffffffffffffffffffffffffffff168282815481106113af576113ae612320565b5b9060005260206000200160009054906101000a900473ffffffffffffffffffffffffffffffffffffffff1673ffffffffffffffffffffffffffffffffffffffff1614156114415781818154811061140957611408612320565b5b9060005260206000200160006101000a81549073ffffffffffffffffffffffffffffffffffffffff021916905560019450505061145b565b808061144c90612279565b915050611379565b5060009350505b5050919050565b6001818154811061147257600080fd5b906000526020600020906005020160009150905080600001805461149590612216565b80601f01602080910402602001604051908101604052809291908181526020018280546114c190612216565b801561150e5780601f106114e35761010080835404028352916020019161150e565b820191906000526020600020905b8154815290600101906020018083116114f157829003601f168201915b5050505050908060010160009054906101000a900473ffffffffffffffffffffffffffffffffffffffff16908060020160009054906101000a900473ffffffffffffffffffffffffffffffffffffffff16908060030154908060040154905085565b61157861177c565b73ffffffffffffffffffffffffffffffffffffffff166115966111ec565b73ffffffffffffffffffffffffffffffffffffffff16146115ec576040517f08c379a00000000000000000000000000000000000000000000000000000000081526004016115e390612002565b60405180910390fd5b600073ffffffffffffffffffffffffffffffffffffffff168173ffffffffffffffffffffffffffffffffffffffff16141561165c576040517f08c379a000000000000000000000000000000000000000000000000000000000815260040161165390611f62565b60405180910390fd5b61166581611784565b50565b600080600090505b60028054905081101561170c576002818154811061169157611690612320565b5b9060005260206000200160009054906101000a900473ffffffffffffffffffffffffffffffffffffffff1673ffffffffffffffffffffffffffffffffffffffff163373ffffffffffffffffffffffffffffffffffffffff1614156116f9576001915050611712565b808061170490612279565b915050611670565b50600090505b90565b600081836117239190612158565b905092915050565b60036000838152602001908152602001600020819080600181540180825580915050600190039060005260206000200160009091909190915090805190602001906117779291906118ce565b505050565b600033905090565b60008060009054906101000a900473ffffffffffffffffffffffffffffffffffffffff169050816000806101000a81548173ffffffffffffffffffffffffffffffffffffffff021916908373ffffffffffffffffffffffffffffffffffffffff1602179055508173ffffffffffffffffffffffffffffffffffffffff168173ffffffffffffffffffffffffffffffffffffffff167f8be0079c531659141344cd1fd0a4f28419497f9722a3daafe3b4186f6b6457e060405160405180910390a35050565b82805461185490612216565b90600052602060002090601f01602090048101928261187657600085556118bd565b82601f1061188f57805160ff19168380011785556118bd565b828001600101855582156118bd579182015b828111156118bc5782518255916020019190600101906118a1565b5b5090506118ca9190611954565b5090565b8280546118da90612216565b90600052602060002090601f0160209004810192826118fc5760008555611943565b82601f1061191557805160ff1916838001178555611943565b82800160010185558215611943579182015b82811115611942578251825591602001919060010190611927565b5b5090506119509190611954565b5090565b5b8082111561196d576000816000905550600101611955565b5090565b600061198461197f84612090565b61206b565b9050828152602081018484840111156119a05761199f612383565b5b6119ab8482856121d4565b509392505050565b60006119c66119c1846120c1565b61206b565b9050828152602081018484840111156119e2576119e1612383565b5b6119ed8482856121d4565b509392505050565b600081359050611a048161268d565b92915050565b600082601f830112611a1f57611a1e61237e565b5b8135611a2f848260208601611971565b91505092915050565b600082601f830112611a4d57611a4c61237e565b5b8135611a5d8482602086016119b3565b91505092915050565b600081359050611a75816126a4565b92915050565b600060208284031215611a9157611a9061238d565b5b6000611a9f848285016119f5565b91505092915050565b600080600060608486031215611ac157611ac061238d565b5b600084013567ffffffffffffffff811115611adf57611ade612388565b5b611aeb86828701611a0a565b935050602084013567ffffffffffffffff811115611b0c57611b0b612388565b5b611b1886828701611a38565b9250506040611b29868287016119f5565b9150509250925092565b600060208284031215611b4957611b4861238d565b5b6000611b5784828501611a66565b91505092915050565b60008060408385031215611b7757611b7661238d565b5b6000611b8585828601611a66565b925050602083013567ffffffffffffffff811115611ba657611ba5612388565b5b611bb285828601611a0a565b9150509250929050565b6000611bc88383611dfc565b905092915050565b611bd98161218c565b82525050565b611be88161218c565b82525050565b6000611bf982612102565b611c038185612125565b935083602082028501611c15856120f2565b8060005b85811015611c515784840389528151611c328582611bbc565b9450611c3d83612118565b925060208a01995050600181019050611c19565b50829750879550505050505092915050565b611c6c8161219e565b82525050565b6000611c7d8261210d565b611c878185612136565b9350611c978185602086016121e3565b611ca081612392565b840191505092915050565b6000611cb68261210d565b611cc08185612147565b9350611cd08185602086016121e3565b611cd981612392565b840191505092915050565b6000611cf1606083612147565b9150611cfc826123a3565b606082019050919050565b6000611d14602683612147565b9150611d1f82612418565b604082019050919050565b6000611d37602783612147565b9150611d4282612467565b604082019050919050565b6000611d5a606583612147565b9150611d65826124b6565b608082019050919050565b6000611d7d602a83612147565b9150611d8882612551565b604082019050919050565b6000611da0601b83612147565b9150611dab826125a0565b602082019050919050565b6000611dc3602083612147565b9150611dce826125c9565b602082019050919050565b6000611de6607683612147565b9150611df1826125f2565b608082019050919050565b600060a0830160008301518482036000860152611e198282611c72565b9150506020830151611e2e6020860182611bd0565b506040830151611e416040860182611bd0565b506060830151611e546060860182611e72565b506080830151611e676080860182611e72565b508091505092915050565b611e7b816121ca565b82525050565b611e8a816121ca565b82525050565b6000602082019050611ea56000830184611bdf565b92915050565b60006020820190508181036000830152611ec58184611bee565b905092915050565b6000602082019050611ee26000830184611c63565b92915050565b600060a0820190508181036000830152611f028188611cab565b9050611f116020830187611bdf565b611f1e6040830186611bdf565b611f2b6060830185611e81565b611f386080830184611e81565b9695505050505050565b60006020820190508181036000830152611f5b81611ce4565b9050919050565b60006020820190508181036000830152611f7b81611d07565b9050919050565b60006020820190508181036000830152611f9b81611d2a565b9050919050565b60006020820190508181036000830152611fbb81611d4d565b9050919050565b60006020820190508181036000830152611fdb81611d70565b9050919050565b60006020820190508181036000830152611ffb81611d93565b9050919050565b6000602082019050818103600083015261201b81611db6565b9050919050565b6000602082019050818103600083015261203b81611dd9565b9050919050565b60006040820190506120576000830185611e81565b6120646020830184611e81565b9392505050565b6000612075612086565b90506120818282612248565b919050565b6000604051905090565b600067ffffffffffffffff8211156120ab576120aa61234f565b5b6120b482612392565b9050602081019050919050565b600067ffffffffffffffff8211156120dc576120db61234f565b5b6120e582612392565b9050602081019050919050565b6000819050602082019050919050565b600081519050919050565b600081519050919050565b6000602082019050919050565b600082825260208201905092915050565b600082825260208201905092915050565b600082825260208201905092915050565b6000612163826121ca565b915061216e836121ca565b925082821015612181576121806122c2565b5b828203905092915050565b6000612197826121aa565b9050919050565b60008115159050919050565b600073ffffffffffffffffffffffffffffffffffffffff82169050919050565b6000819050919050565b82818337600083830152505050565b60005b838110156122015780820151818401526020810190506121e6565b83811115612210576000848401525b50505050565b6000600282049050600182168061222e57607f821691505b60208210811415612242576122416122f1565b5b50919050565b61225182612392565b810181811067ffffffffffffffff821117156122705761226f61234f565b5b80604052505050565b6000612284826121ca565b91507fffffffffffffffffffffffffffffffffffffffffffffffffffffffffffffffff8214156122b7576122b66122c2565b5b600182019050919050565b7f4e487b7100000000000000000000000000000000000000000000000000000000600052601160045260246000fd5b7f4e487b7100000000000000000000000000000000000000000000000000000000600052602260045260246000fd5b7f4e487b7100000000000000000000000000000000000000000000000000000000600052603260045260246000fd5b7f4e487b7100000000000000000000000000000000000000000000000000000000600052604160045260246000fd5b600080fd5b600080fd5b600080fd5b600080fd5b6000601f19601f8301169050919050565b7f4554482061646472657373206973206e6f74206120726567697374657265642060008201527f7075626c69636174696f6e2e20437265617465206f6e65206f7220686176652060208201527f61207075626c69736865722061646420796f7520746f20746865207465616d2e604082015250565b7f4f776e61626c653a206e6577206f776e657220697320746865207a65726f206160008201527f6464726573730000000000000000000000000000000000000000000000000000602082015250565b7f596f7520617265206e6f742074686520617574686f72206f662074686973206160008201527f727469636c652e00000000000000000000000000000000000000000000000000602082015250565b7f596f75206861766520616c726561647920617574686f72656420616e2061727460008201527f69636c652e205369676e20696e207769746820616e6f7468657220455448206160208201527f63636f756e7420746f206372656174652061207075626c69736865722061636360408201527f6f756e742e000000000000000000000000000000000000000000000000000000606082015250565b7f4163636f756e7420616c7265616479207265676973746572656420617320612060008201527f7075626c69736865722e00000000000000000000000000000000000000000000602082015250565b7f496e76616c6964204950465320686173682070726f76696465642e0000000000600082015250565b7f4f776e61626c653a2063616c6c6572206973206e6f7420746865206f776e6572600082015250565b7f596f75206e6f742061206d656d626572206f6620746865207075626c6963617460008201527f696f6e2e20436865636b20666f722061646472657373206572726f72732e204160208201527f736b207075626c69636174696f6e206f776e657220746f2061646420796f757260408201527f206164647265737320617320616e20617574686f722e00000000000000000000606082015250565b6126968161218c565b81146126a157600080fd5b50565b6126ad816121ca565b81146126b857600080fd5b5056fea26469706673582212201ac7a00e3f44fb50f2687b61389500b10db8dc1cc91c29481627ec3859c89ac364736f6c63430008070033",
  "immutableReferences": {},
  "source": "pragma solidity ^0.8.0;\n\nimport \"../client/node_modules/@openzeppelin/contracts/access/Ownable.sol\";\nimport \"../client/node_modules/@openzeppelin/contracts/utils/math/SafeMath.sol\";\n\n/// @title Main parent contract\n/// @author Griffin Sharp & Riley Campbell\n/// @notice TBD\n/// @dev TBD\ncontract Editor is Ownable {\n    // TO-DO: Remove any uint's not being used.\n    // Opitmize uintXXX for smaller values wherever possible (uint256 -> uint16)\n    using SafeMath for uint256;\n    using SafeMath for uint32;\n    using SafeMath for uint16;\n\n    // EVENTS ---\n    // Emitted when article is first created.\n    event ArticlePosted(\n        uint articleId,\n        uint timePosted,\n        address indexed authoraddress,\n        address indexed publicationAddress\n    );\n\n    // Emitted when article is updated.\n    event ArticleEdited(\n        uint articleId,\n        uint timeUpdated,\n        address indexed authorAddress,\n        address indexed publicationAddress\n    );\n\n    event publicationCreated(\n        uint publicationId,\n        uint timeCreated,\n        address indexed publicationAddress\n    );\n\n    struct Article {\n        string articleName;\n        address authorAddress;\n        address publicationAddress;\n        uint timePosted;\n        uint timeUpdated;\n    }\n\n    // VARIABLES ---\n    Article[] public articles;\n    address[] public publications;\n\n    // Mapping of articleId to IPFS hashes of the article.\n    mapping(uint => bytes[]) articleIdToHashes;\n    // Mapping of author address to the ids of each article they have authored.\n    mapping(address => uint[]) authorAddressToArticleIds;\n\n    // Mapping of publicationId to article ids.\n    mapping(uint => uint[]) publicationIdToArticleIds;\n    // Mapping of publicationId to approved authors.\n    mapping(address => address[]) publicationAddressToAuthors;\n\n    // MODIFIERS ---\n\n    // Checks to see if the caller is the author of the article.\n    modifier onlyAuthorOfArticle(uint _articleId) {\n        bool isAuthor = false;\n        uint[] memory authoredArticles = authorAddressToArticleIds[msg.sender];\n\n        for(uint i=0; i < authoredArticles.length; i++) {\n            if (authoredArticles[i] == _articleId) {\n                isAuthor = true;\n            }\n        }\n\n        require(isAuthor, \"You are not the author of this article.\");\n        _;\n    }\n\n    // Checks to see if the author has NOT created an article yet/still default value.\n    modifier isNotAnAuthor() {\n        require(authorAddressToArticleIds[msg.sender].length == 0, \"You have already authored an article. Sign in with another ETH account to create a publisher account.\");\n        _;\n    }\n\n    // Address provided is not a publication.\n    modifier isNotAPublisher(address _address) {\n        bool isNotPublisher = true;\n\n        for (uint i=0; i < publications.length; i++) {\n            if (_address == publications[i]) {\n                isNotPublisher = false;\n            }\n        }\n\n        require(isNotPublisher, \"Account already registered as a publisher.\");\n        _;\n    }\n\n    // Checks to see if the publicationId provided is registered or the 0x0 address (self-published).\n    modifier publicationValid(address _publicationAddress) {\n        bool isPublication = false;\n\n        if (_publicationAddress == address(0)) {\n            isPublication = true;\n        } else {\n            for (uint i=0; i < publications.length; i++) {\n                if (_publicationAddress == publications[i]) {\n                    isPublication = true;\n                }\n            }\n        }\n\n        require(isPublication, \"ETH address is not a registered publication. Create one or have a publisher add you to the team.\");\n        _;\n    }\n\n    // Checks if user calling the function is on the publication's approved author list\n    modifier isMemberOfPublication(address _publicationAddress) {\n        bool isMember = false;\n\n        if (_publicationAddress == address(0)) {\n            isMember = true;\n        } else {\n            address[] memory approvedAuthors = publicationAddressToAuthors[_publicationAddress];\n            if (approvedAuthors.length > 0) {\n                for (uint i=0; i < approvedAuthors.length; i++) {\n                    if (approvedAuthors[i] == msg.sender) {\n                        isMember = true;\n                    }\n                }\n            }\n        }\n\n        require(isMember, \"You not a member of the publication. Check for address errors. Ask publication owner to add your address as an author.\");\n        _;\n    }\n\n    // TO-DO:\n    // Validates IPFS hash\n    modifier isValidHash(bytes memory _ipfsHash) {\n        require(true, \"Invalid IPFS hash provided.\");\n        _;\n    }\n\n    // PUBLIC FUNCTIONS ---\n    /// @notice Adds an author to a publication's approved authors. Can only be called by a publication.\n    /// @dev We only check if its a publication, not a specific publication, since we use msg.sender to add to the authors array. Only adds non-publishers.\n    /// @param _authorAddress The address of the author to be added.\n    function addAuthorToPublication(address _authorAddress) public publicationValid(msg.sender) isNotAPublisher(_authorAddress) {\n        publicationAddressToAuthors[msg.sender].push(_authorAddress);\n    }\n\n    /// @notice Creates a publisher account.\n    /** @dev Checks for if a user is already reigstered as a publisher AND if they haven't authored an article yet.\n    Checks authorAddressToArticleIds and loops though publishers. There is no createAuthor or authors array to save authors gas. */\n    function createPublication() public isNotAPublisher(msg.sender) isNotAnAuthor {\n        publications.push(msg.sender);\n        uint id = publications.length.sub(1);\n        emit publicationCreated({\n            publicationId: id,\n            timeCreated: block.timestamp,\n            publicationAddress: msg.sender\n        });\n    }\n\n    /// @notice Posts a new article to IPFS\n    /// @dev Checks if user is a member of the publication. UI should tell user to use 0x0 address if self-published or to create their own publisher account.\n    /// @param _articleHash IPFS hash of text written by the author\n    /// @param _publicationAddress Address of the publication\n    function postArticle(\n        bytes memory _articleHash,\n        string memory _articleName,\n        address _publicationAddress\n    )\n        public\n        isNotAPublisher(msg.sender)\n        isMemberOfPublication(_publicationAddress)\n        isValidHash(_articleHash)\n        publicationValid(_publicationAddress)\n    {\n        // TO-DO: Run modifier to check for valid hash\n\n        Article memory newArticle = Article({\n            articleName: _articleName,\n            authorAddress: msg.sender,\n            publicationAddress: _publicationAddress,\n            timePosted: block.timestamp,\n            timeUpdated: 0\n        });\n\n        articles.push(newArticle);\n        uint256 articleId = (articles.length).sub(1);\n\n        _addArticleHash(articleId, _articleHash);\n        authorAddressToArticleIds[msg.sender].push(articleId);\n\n        emit ArticlePosted(articleId, block.timestamp, msg.sender, _publicationAddress);\n    }\n\n    /// @notice Removes author from a publication's approved authors. Can only be called by publication.\n    /** @dev Use the return value (bool) to display on the UI a success or failure message. Remove return val if not necessary.\n    Delete inserts the default value back, so it will be 0x0. May have to filter this out on the FE. */\n    /// @param _authorAddress The address of the author to be removed.\n    /// @return Returns true is successfully removed. False is not removed.\n    function removeAuthorFromPublication(address _authorAddress) public publicationValid(msg.sender) returns(bool) {\n        address[] storage authorsArray = publicationAddressToAuthors[msg.sender];\n        for (uint i=0; i < authorsArray.length; i++) {\n            if (authorsArray[i] == _authorAddress) {\n                delete authorsArray[i];\n                return true;\n            }\n        }\n\n        return false;\n    }\n\n    /// @notice Updates an article already uploaded to IPFS by adding new hash\n    /** @dev Only the author may call this fn. Right now, isMemberOfPublication only runs on creation (not on update).\n    Debating adding it here to prevent rogue ex-official authors from sabotage editing, but I also want authors to have full autonomy over their work. */\n    /// @param _articleId The id of the article being updated\n    /// @param _articleHash The hash of the new version of the article's text\n    function updateArticle(uint _articleId, bytes memory _articleHash) public onlyAuthorOfArticle(_articleId) isValidHash(_articleHash) {\n        _addArticleHash(_articleId, _articleHash);\n        emit ArticleEdited(_articleId, block.timestamp, msg.sender, articles[_articleId].publicationAddress);\n    }\n\n    /// @notice View function that checks if the current user is a publisher account.\n    /// @dev Used via UI ONLY. Use modifiers for function checks.\n    /// @return True if publisher account. False is not.\n    function isRegisteredPublisher() public view returns(bool) {\n        for (uint i=0; i < publications.length; i++) {\n            if (msg.sender == publications[i]) {\n                return true;\n            }\n        }\n\n        return false;\n    }\n\n    /// @notice Getter function for the articles\n    /// @dev Returns the public articles variable\n    function getArticles() public returns(Article[] memory) {\n        return articles;\n    }\n\n    // PRIVATE FUNCTIONS ---\n    /// @notice Updates an article already uploaded to IPFS.\n    /// @dev\n    /// @param _articleId The id of the article\n    /// @param _articleHash The hash of the article's text\n    function _addArticleHash(uint _articleId, bytes memory _articleHash) private {\n        articleIdToHashes[_articleId].push(_articleHash);\n    }\n}\n",
  "sourcePath": "/Users/griff/Desktop/ipfs-journal/contracts/Editor.sol",
  "compiler": {
    "name": "solc",
    "version": "0.8.7+commit.e28d00a7.Emscripten.clang"
  },
  "schemaVersion": "3.4.1",
  "updatedAt": "2021-08-12T16:16:02.315Z",
  "networkType": "ethereum",
  "devdoc": {
    "author": "Griffin Sharp & Riley Campbell",
    "details": "TBD",
    "kind": "dev",
    "methods": {
      "addAuthorToPublication(address)": {
        "details": "We only check if its a publication, not a specific publication, since we use msg.sender to add to the authors array. Only adds non-publishers.",
        "params": {
          "_authorAddress": "The address of the author to be added."
        }
      },
      "createPublication()": {
        "details": "Checks for if a user is already reigstered as a publisher AND if they haven't authored an article yet. Checks authorAddressToArticleIds and loops though publishers. There is no createAuthor or authors array to save authors gas. "
      },
      "getArticles()": {
        "details": "Returns the public articles variable"
      },
      "isRegisteredPublisher()": {
        "details": "Used via UI ONLY. Use modifiers for function checks.",
        "returns": {
          "_0": "True if publisher account. False is not."
        }
      },
      "owner()": {
        "details": "Returns the address of the current owner."
      },
      "postArticle(bytes,string,address)": {
        "details": "Checks if user is a member of the publication. UI should tell user to use 0x0 address if self-published or to create their own publisher account.",
        "params": {
          "_articleHash": "IPFS hash of text written by the author",
          "_publicationAddress": "Address of the publication"
        }
      },
      "removeAuthorFromPublication(address)": {
        "params": {
          "_authorAddress": "The address of the author to be removed."
        },
        "returns": {
          "_0": "Returns true is successfully removed. False is not removed."
        }
      },
      "renounceOwnership()": {
        "details": "Leaves the contract without owner. It will not be possible to call `onlyOwner` functions anymore. Can only be called by the current owner. NOTE: Renouncing ownership will leave the contract without an owner, thereby removing any functionality that is only available to the owner."
      },
      "transferOwnership(address)": {
        "details": "Transfers ownership of the contract to a new account (`newOwner`). Can only be called by the current owner."
      },
      "updateArticle(uint256,bytes)": {
        "params": {
          "_articleHash": "The hash of the new version of the article's text",
          "_articleId": "The id of the article being updated"
        }
      }
    },
    "title": "Main parent contract",
    "version": 1
  },
  "userdoc": {
    "kind": "user",
    "methods": {
      "addAuthorToPublication(address)": {
        "notice": "Adds an author to a publication's approved authors. Can only be called by a publication."
      },
      "getArticles()": {
        "notice": "Getter function for the articles"
      },
      "isRegisteredPublisher()": {
        "notice": "View function that checks if the current user is a publisher account."
      },
      "postArticle(bytes,string,address)": {
        "notice": "Posts a new article to IPFS"
      }
    },
    "notice": "TBD",
    "version": 1
  }
}