{
  "contractName": "Editor",
  "abi": [
    {
      "anonymous": false,
      "inputs": [
        {
          "indexed": false,
          "internalType": "uint256",
          "name": "articleId",
          "type": "uint256"
        },
        {
          "indexed": false,
          "internalType": "uint256",
          "name": "timeUpdated",
          "type": "uint256"
        },
        {
          "indexed": true,
          "internalType": "address",
          "name": "authorAddress",
          "type": "address"
        },
        {
          "indexed": true,
          "internalType": "address",
          "name": "publicationAddress",
          "type": "address"
        }
      ],
      "name": "ArticleEdited",
      "type": "event"
    },
    {
      "anonymous": false,
      "inputs": [
        {
          "indexed": false,
          "internalType": "uint256",
          "name": "articleId",
          "type": "uint256"
        },
        {
          "indexed": false,
          "internalType": "uint256",
          "name": "timePosted",
          "type": "uint256"
        },
        {
          "indexed": true,
          "internalType": "address",
          "name": "authoraddress",
          "type": "address"
        },
        {
          "indexed": true,
          "internalType": "address",
          "name": "publicationAddress",
          "type": "address"
        }
      ],
      "name": "ArticlePosted",
      "type": "event"
    },
    {
      "anonymous": false,
      "inputs": [
        {
          "indexed": true,
          "internalType": "address",
          "name": "previousOwner",
          "type": "address"
        },
        {
          "indexed": true,
          "internalType": "address",
          "name": "newOwner",
          "type": "address"
        }
      ],
      "name": "OwnershipTransferred",
      "type": "event"
    },
    {
      "anonymous": false,
      "inputs": [
        {
          "indexed": false,
          "internalType": "uint256",
          "name": "publicationId",
          "type": "uint256"
        },
        {
          "indexed": false,
          "internalType": "uint256",
          "name": "timeCreated",
          "type": "uint256"
        },
        {
          "indexed": true,
          "internalType": "address",
          "name": "publicationAddress",
          "type": "address"
        }
      ],
      "name": "publicationCreated",
      "type": "event"
    },
    {
      "inputs": [
        {
          "internalType": "uint256",
          "name": "",
          "type": "uint256"
        }
      ],
      "name": "articles",
      "outputs": [
        {
          "internalType": "string",
          "name": "articleName",
          "type": "string"
        },
        {
          "internalType": "address",
          "name": "authorAddress",
          "type": "address"
        },
        {
          "internalType": "address",
          "name": "publicationAddress",
          "type": "address"
        },
        {
          "internalType": "uint256",
          "name": "timePosted",
          "type": "uint256"
        },
        {
          "internalType": "uint256",
          "name": "timeUpdated",
          "type": "uint256"
        }
      ],
      "stateMutability": "view",
      "type": "function",
      "constant": true
    },
    {
      "inputs": [],
      "name": "owner",
      "outputs": [
        {
          "internalType": "address",
          "name": "",
          "type": "address"
        }
      ],
      "stateMutability": "view",
      "type": "function",
      "constant": true
    },
    {
      "inputs": [
        {
          "internalType": "uint256",
          "name": "",
          "type": "uint256"
        }
      ],
      "name": "publications",
      "outputs": [
        {
          "internalType": "address",
          "name": "",
          "type": "address"
        }
      ],
      "stateMutability": "view",
      "type": "function",
      "constant": true
    },
    {
      "inputs": [],
      "name": "renounceOwnership",
      "outputs": [],
      "stateMutability": "nonpayable",
      "type": "function"
    },
    {
      "inputs": [
        {
          "internalType": "address",
          "name": "newOwner",
          "type": "address"
        }
      ],
      "name": "transferOwnership",
      "outputs": [],
      "stateMutability": "nonpayable",
      "type": "function"
    },
    {
      "inputs": [],
      "name": "getArticles",
      "outputs": [
        {
          "components": [
            {
              "internalType": "string",
              "name": "articleName",
              "type": "string"
            },
            {
              "internalType": "address",
              "name": "authorAddress",
              "type": "address"
            },
            {
              "internalType": "address",
              "name": "publicationAddress",
              "type": "address"
            },
            {
              "internalType": "uint256",
              "name": "timePosted",
              "type": "uint256"
            },
            {
              "internalType": "uint256",
              "name": "timeUpdated",
              "type": "uint256"
            }
          ],
          "internalType": "struct Editor.Article[]",
          "name": "",
          "type": "tuple[]"
        }
      ],
      "stateMutability": "view",
      "type": "function",
      "constant": true
    },
    {
      "inputs": [
        {
          "internalType": "address",
          "name": "_authorAddress",
          "type": "address"
        }
      ],
      "name": "getArticleIdsFromAuthorAddress",
      "outputs": [
        {
          "internalType": "uint256[]",
          "name": "",
          "type": "uint256[]"
        }
      ],
      "stateMutability": "view",
      "type": "function",
      "constant": true
    },
    {
      "inputs": [
        {
          "internalType": "uint256",
          "name": "_articleId",
          "type": "uint256"
        }
      ],
      "name": "getHashesFromArticleId",
      "outputs": [
        {
          "internalType": "bytes[]",
          "name": "",
          "type": "bytes[]"
        }
      ],
      "stateMutability": "view",
      "type": "function",
      "constant": true
    },
    {
      "inputs": [
        {
          "internalType": "address",
          "name": "_authorAddress",
          "type": "address"
        }
      ],
      "name": "addAuthorToPublication",
      "outputs": [],
      "stateMutability": "nonpayable",
      "type": "function"
    },
    {
      "inputs": [],
      "name": "createPublication",
      "outputs": [],
      "stateMutability": "nonpayable",
      "type": "function"
    },
    {
      "inputs": [
        {
          "internalType": "bytes",
          "name": "_articleHash",
          "type": "bytes"
        },
        {
          "internalType": "string",
          "name": "_articleName",
          "type": "string"
        },
        {
          "internalType": "address",
          "name": "_publicationAddress",
          "type": "address"
        }
      ],
      "name": "postArticle",
      "outputs": [],
      "stateMutability": "nonpayable",
      "type": "function"
    },
    {
      "inputs": [
        {
          "internalType": "address",
          "name": "_authorAddress",
          "type": "address"
        }
      ],
      "name": "removeAuthorFromPublication",
      "outputs": [
        {
          "internalType": "bool",
          "name": "",
          "type": "bool"
        }
      ],
      "stateMutability": "nonpayable",
      "type": "function"
    },
    {
      "inputs": [
        {
          "internalType": "uint256",
          "name": "_articleId",
          "type": "uint256"
        },
        {
          "internalType": "bytes",
          "name": "_articleHash",
          "type": "bytes"
        }
      ],
      "name": "updateArticle",
      "outputs": [],
      "stateMutability": "nonpayable",
      "type": "function"
    },
    {
      "inputs": [],
      "name": "isRegisteredPublisher",
      "outputs": [
        {
          "internalType": "bool",
          "name": "",
          "type": "bool"
        }
      ],
      "stateMutability": "view",
      "type": "function",
      "constant": true
    }
  ],
  "bytecode": "0x60806040523480156200001157600080fd5b5062000032620000266200003860201b60201c565b6200004060201b60201c565b62000104565b600033905090565b60008060009054906101000a900473ffffffffffffffffffffffffffffffffffffffff169050816000806101000a81548173ffffffffffffffffffffffffffffffffffffffff021916908373ffffffffffffffffffffffffffffffffffffffff1602179055508173ffffffffffffffffffffffffffffffffffffffff168173ffffffffffffffffffffffffffffffffffffffff167f8be0079c531659141344cd1fd0a4f28419497f9722a3daafe3b4186f6b6457e060405160405180910390a35050565b612b1480620001146000396000f3fe608060405234801561001057600080fd5b50600436106100e95760003560e01c80637ae9637b1161008c578063dca3e34611610066578063dca3e34614610222578063edcfafe614610252578063f2fde38b14610286578063f724b0b2146102a2576100e9565b80637ae9637b146101b85780638da5cb5b146101d45780639783dc4f146101f2576100e9565b80634e5f4933116100c85780634e5f4933146101445780636529f44a14610160578063666338911461017e578063715018a6146101ae576100e9565b8062fd6bf7146100ee5780631fd5bbab146100f85780633f48bea914610128575b600080fd5b6100f66102c0565b005b610112600480360381019061010d9190611d4c565b6104fc565b60405161011f91906121e1565b60405180910390f35b610142600480360381019061013d9190611cc1565b61053b565b005b61015e60048036038101906101599190611d79565b610b89565b005b610168610da4565b604051610175919061221e565b60405180910390f35b61019860048036038101906101939190611c94565b610f55565b6040516101a59190612240565b60405180910390f35b6101b6610fec565b005b6101d260048036038101906101cd9190611c94565b611074565b005b6101dc611319565b6040516101e991906121e1565b60405180910390f35b61020c60048036038101906102079190611d4c565b611342565b60405161021991906121fc565b60405180910390f35b61023c60048036038101906102379190611c94565b61142e565b6040516102499190612262565b60405180910390f35b61026c60048036038101906102679190611d4c565b61167b565b60405161027d95949392919061227d565b60405180910390f35b6102a0600480360381019061029b9190611c94565b611789565b005b6102aa611881565b6040516102b79190612262565b60405180910390f35b3360006001905060005b60028054905081101561036157600281815481106102eb576102ea612743565b5b9060005260206000200160009054906101000a900473ffffffffffffffffffffffffffffffffffffffff1673ffffffffffffffffffffffffffffffffffffffff168373ffffffffffffffffffffffffffffffffffffffff16141561034e57600091505b80806103599061269c565b9150506102ca565b50806103a2576040517f08c379a000000000000000000000000000000000000000000000000000000000815260040161039990612357565b60405180910390fd5b6000600460003373ffffffffffffffffffffffffffffffffffffffff1673ffffffffffffffffffffffffffffffffffffffff1681526020019081526020016000208054905014610427576040517f08c379a000000000000000000000000000000000000000000000000000000000815260040161041e90612337565b60405180910390fd5b6002339080600181540180825580915050600190039060005260206000200160009091909190916101000a81548173ffffffffffffffffffffffffffffffffffffffff021916908373ffffffffffffffffffffffffffffffffffffffff16021790555060006104a5600160028054905061192e90919063ffffffff16565b90503373ffffffffffffffffffffffffffffffffffffffff167fdf888d7ef5027a4c5a75d67f940cba733410661403f7fdce05bcc7cdf8f7255282426040516104ef9291906123d7565b60405180910390a2505050565b6002818154811061050c57600080fd5b906000526020600020016000915054906101000a900473ffffffffffffffffffffffffffffffffffffffff1681565b3360006001905060005b6002805490508110156105dc576002818154811061056657610565612743565b5b9060005260206000200160009054906101000a900473ffffffffffffffffffffffffffffffffffffffff1673ffffffffffffffffffffffffffffffffffffffff168373ffffffffffffffffffffffffffffffffffffffff1614156105c957600091505b80806105d49061269c565b915050610545565b508061061d576040517f08c379a000000000000000000000000000000000000000000000000000000000815260040161061490612357565b60405180910390fd5b8260008073ffffffffffffffffffffffffffffffffffffffff168273ffffffffffffffffffffffffffffffffffffffff16141561065d57600190506107a5565b6000600660008473ffffffffffffffffffffffffffffffffffffffff1673ffffffffffffffffffffffffffffffffffffffff16815260200190815260200160002080548060200260200160405190810160405280929190818152602001828054801561071e57602002820191906000526020600020905b8160009054906101000a900473ffffffffffffffffffffffffffffffffffffffff1673ffffffffffffffffffffffffffffffffffffffff16815260200190600101908083116106d4575b505050505090506000815111156107a35760005b81518110156107a1573373ffffffffffffffffffffffffffffffffffffffff1682828151811061076557610764612743565b5b602002602001015173ffffffffffffffffffffffffffffffffffffffff16141561078e57600192505b80806107999061269c565b915050610732565b505b505b806107e5576040517f08c379a00000000000000000000000000000000000000000000000000000000081526004016107dc906123b7565b60405180910390fd5b866001610827576040517f08c379a000000000000000000000000000000000000000000000000000000000815260040161081e90612377565b60405180910390fd5b8560008073ffffffffffffffffffffffffffffffffffffffff168273ffffffffffffffffffffffffffffffffffffffff1614156108675760019050610903565b60005b600280549050811015610901576002818154811061088b5761088a612743565b5b9060005260206000200160009054906101000a900473ffffffffffffffffffffffffffffffffffffffff1673ffffffffffffffffffffffffffffffffffffffff168373ffffffffffffffffffffffffffffffffffffffff1614156108ee57600191505b80806108f99061269c565b91505061086a565b505b80610943576040517f08c379a000000000000000000000000000000000000000000000000000000000815260040161093a906122d7565b60405180910390fd5b60006040518060a001604052808b81526020013373ffffffffffffffffffffffffffffffffffffffff1681526020018a73ffffffffffffffffffffffffffffffffffffffff16815260200142815260200160008152509050600181908060018154018082558091505060019003906000526020600020906005020160009091909190915060008201518160000190805190602001906109e3929190611a61565b5060208201518160010160006101000a81548173ffffffffffffffffffffffffffffffffffffffff021916908373ffffffffffffffffffffffffffffffffffffffff16021790555060408201518160020160006101000a81548173ffffffffffffffffffffffffffffffffffffffff021916908373ffffffffffffffffffffffffffffffffffffffff160217905550606082015181600301556080820151816004015550506000610aa26001808054905061192e90919063ffffffff16565b9050610aae818d611944565b600460003373ffffffffffffffffffffffffffffffffffffffff1673ffffffffffffffffffffffffffffffffffffffff1681526020019081526020016000208190806001815401808255809150506001900390600052602060002001600090919091909150558973ffffffffffffffffffffffffffffffffffffffff163373ffffffffffffffffffffffffffffffffffffffff167f34e759819a3fd445432907256daa8d4ea43fb5fcd9b40305f43c7e188f3c245a8342604051610b739291906123d7565b60405180910390a3505050505050505050505050565b81600080600460003373ffffffffffffffffffffffffffffffffffffffff1673ffffffffffffffffffffffffffffffffffffffff168152602001908152602001600020805480602002602001604051908101604052809291908181526020018280548015610c1657602002820191906000526020600020905b815481526020019060010190808311610c02575b5050505050905060005b8151811015610c635783828281518110610c3d57610c3c612743565b5b60200260200101511415610c5057600192505b8080610c5b9061269c565b915050610c20565b5081610ca4576040517f08c379a0000000000000000000000000000000000000000000000000000000008152600401610c9b90612317565b60405180910390fd5b836001610ce6576040517f08c379a0000000000000000000000000000000000000000000000000000000008152600401610cdd90612377565b60405180910390fd5b610cf08686611944565b60018681548110610d0457610d03612743565b5b906000526020600020906005020160020160009054906101000a900473ffffffffffffffffffffffffffffffffffffffff1673ffffffffffffffffffffffffffffffffffffffff163373ffffffffffffffffffffffffffffffffffffffff167f516404cb7dcfb406fc9e1ab47753e57bf01d7ce5016efefe1d472be69817a89d8842604051610d949291906123d7565b60405180910390a3505050505050565b60606001805480602002602001604051908101604052809291908181526020016000905b82821015610f4c57838290600052602060002090600502016040518060a0016040529081600082018054610dfb90612639565b80601f0160208091040260200160405190810160405280929190818152602001828054610e2790612639565b8015610e745780601f10610e4957610100808354040283529160200191610e74565b820191906000526020600020905b815481529060010190602001808311610e5757829003601f168201915b505050505081526020016001820160009054906101000a900473ffffffffffffffffffffffffffffffffffffffff1673ffffffffffffffffffffffffffffffffffffffff1673ffffffffffffffffffffffffffffffffffffffff1681526020016002820160009054906101000a900473ffffffffffffffffffffffffffffffffffffffff1673ffffffffffffffffffffffffffffffffffffffff1673ffffffffffffffffffffffffffffffffffffffff1681526020016003820154815260200160048201548152505081526020019060010190610dc8565b50505050905090565b6060600460008373ffffffffffffffffffffffffffffffffffffffff1673ffffffffffffffffffffffffffffffffffffffff168152602001908152602001600020805480602002602001604051908101604052809291908181526020018280548015610fe057602002820191906000526020600020905b815481526020019060010190808311610fcc575b50505050509050919050565b610ff4611995565b73ffffffffffffffffffffffffffffffffffffffff16611012611319565b73ffffffffffffffffffffffffffffffffffffffff1614611068576040517f08c379a000000000000000000000000000000000000000000000000000000000815260040161105f90612397565b60405180910390fd5b611072600061199d565b565b3360008073ffffffffffffffffffffffffffffffffffffffff168273ffffffffffffffffffffffffffffffffffffffff1614156110b45760019050611150565b60005b60028054905081101561114e57600281815481106110d8576110d7612743565b5b9060005260206000200160009054906101000a900473ffffffffffffffffffffffffffffffffffffffff1673ffffffffffffffffffffffffffffffffffffffff168373ffffffffffffffffffffffffffffffffffffffff16141561113b57600191505b80806111469061269c565b9150506110b7565b505b80611190576040517f08c379a0000000000000000000000000000000000000000000000000000000008152600401611187906122d7565b60405180910390fd5b8260006001905060005b60028054905081101561123157600281815481106111bb576111ba612743565b5b9060005260206000200160009054906101000a900473ffffffffffffffffffffffffffffffffffffffff1673ffffffffffffffffffffffffffffffffffffffff168373ffffffffffffffffffffffffffffffffffffffff16141561121e57600091505b80806112299061269c565b91505061119a565b5080611272576040517f08c379a000000000000000000000000000000000000000000000000000000000815260040161126990612357565b60405180910390fd5b600660003373ffffffffffffffffffffffffffffffffffffffff1673ffffffffffffffffffffffffffffffffffffffff168152602001908152602001600020859080600181540180825580915050600190039060005260206000200160009091909190916101000a81548173ffffffffffffffffffffffffffffffffffffffff021916908373ffffffffffffffffffffffffffffffffffffffff1602179055505050505050565b60008060009054906101000a900473ffffffffffffffffffffffffffffffffffffffff16905090565b606060036000838152602001908152602001600020805480602002602001604051908101604052809291908181526020016000905b8282101561142357838290600052602060002001805461139690612639565b80601f01602080910402602001604051908101604052809291908181526020018280546113c290612639565b801561140f5780601f106113e45761010080835404028352916020019161140f565b820191906000526020600020905b8154815290600101906020018083116113f257829003601f168201915b505050505081526020019060010190611377565b505050509050919050565b60003360008073ffffffffffffffffffffffffffffffffffffffff168273ffffffffffffffffffffffffffffffffffffffff161415611470576001905061150c565b60005b60028054905081101561150a576002818154811061149457611493612743565b5b9060005260206000200160009054906101000a900473ffffffffffffffffffffffffffffffffffffffff1673ffffffffffffffffffffffffffffffffffffffff168373ffffffffffffffffffffffffffffffffffffffff1614156114f757600191505b80806115029061269c565b915050611473565b505b8061154c576040517f08c379a0000000000000000000000000000000000000000000000000000000008152600401611543906122d7565b60405180910390fd5b6000600660003373ffffffffffffffffffffffffffffffffffffffff1673ffffffffffffffffffffffffffffffffffffffff168152602001908152602001600020905060005b818054905081101561166d578573ffffffffffffffffffffffffffffffffffffffff168282815481106115c8576115c7612743565b5b9060005260206000200160009054906101000a900473ffffffffffffffffffffffffffffffffffffffff1673ffffffffffffffffffffffffffffffffffffffff16141561165a5781818154811061162257611621612743565b5b9060005260206000200160006101000a81549073ffffffffffffffffffffffffffffffffffffffff0219169055600194505050611674565b80806116659061269c565b915050611592565b5060009350505b5050919050565b6001818154811061168b57600080fd5b90600052602060002090600502016000915090508060000180546116ae90612639565b80601f01602080910402602001604051908101604052809291908181526020018280546116da90612639565b80156117275780601f106116fc57610100808354040283529160200191611727565b820191906000526020600020905b81548152906001019060200180831161170a57829003601f168201915b5050505050908060010160009054906101000a900473ffffffffffffffffffffffffffffffffffffffff16908060020160009054906101000a900473ffffffffffffffffffffffffffffffffffffffff16908060030154908060040154905085565b611791611995565b73ffffffffffffffffffffffffffffffffffffffff166117af611319565b73ffffffffffffffffffffffffffffffffffffffff1614611805576040517f08c379a00000000000000000000000000000000000000000000000000000000081526004016117fc90612397565b60405180910390fd5b600073ffffffffffffffffffffffffffffffffffffffff168173ffffffffffffffffffffffffffffffffffffffff161415611875576040517f08c379a000000000000000000000000000000000000000000000000000000000815260040161186c906122f7565b60405180910390fd5b61187e8161199d565b50565b600080600090505b60028054905081101561192557600281815481106118aa576118a9612743565b5b9060005260206000200160009054906101000a900473ffffffffffffffffffffffffffffffffffffffff1673ffffffffffffffffffffffffffffffffffffffff163373ffffffffffffffffffffffffffffffffffffffff16141561191257600191505061192b565b808061191d9061269c565b915050611889565b50600090505b90565b6000818361193c919061257b565b905092915050565b6003600083815260200190815260200160002081908060018154018082558091505060019003906000526020600020016000909190919091509080519060200190611990929190611ae7565b505050565b600033905090565b60008060009054906101000a900473ffffffffffffffffffffffffffffffffffffffff169050816000806101000a81548173ffffffffffffffffffffffffffffffffffffffff021916908373ffffffffffffffffffffffffffffffffffffffff1602179055508173ffffffffffffffffffffffffffffffffffffffff168173ffffffffffffffffffffffffffffffffffffffff167f8be0079c531659141344cd1fd0a4f28419497f9722a3daafe3b4186f6b6457e060405160405180910390a35050565b828054611a6d90612639565b90600052602060002090601f016020900481019282611a8f5760008555611ad6565b82601f10611aa857805160ff1916838001178555611ad6565b82800160010185558215611ad6579182015b82811115611ad5578251825591602001919060010190611aba565b5b509050611ae39190611b6d565b5090565b828054611af390612639565b90600052602060002090601f016020900481019282611b155760008555611b5c565b82601f10611b2e57805160ff1916838001178555611b5c565b82800160010185558215611b5c579182015b82811115611b5b578251825591602001919060010190611b40565b5b509050611b699190611b6d565b5090565b5b80821115611b86576000816000905550600101611b6e565b5090565b6000611b9d611b9884612425565b612400565b905082815260208101848484011115611bb957611bb86127a6565b5b611bc48482856125f7565b509392505050565b6000611bdf611bda84612456565b612400565b905082815260208101848484011115611bfb57611bfa6127a6565b5b611c068482856125f7565b509392505050565b600081359050611c1d81612ab0565b92915050565b600082601f830112611c3857611c376127a1565b5b8135611c48848260208601611b8a565b91505092915050565b600082601f830112611c6657611c656127a1565b5b8135611c76848260208601611bcc565b91505092915050565b600081359050611c8e81612ac7565b92915050565b600060208284031215611caa57611ca96127b0565b5b6000611cb884828501611c0e565b91505092915050565b600080600060608486031215611cda57611cd96127b0565b5b600084013567ffffffffffffffff811115611cf857611cf76127ab565b5b611d0486828701611c23565b935050602084013567ffffffffffffffff811115611d2557611d246127ab565b5b611d3186828701611c51565b9250506040611d4286828701611c0e565b9150509250925092565b600060208284031215611d6257611d616127b0565b5b6000611d7084828501611c7f565b91505092915050565b60008060408385031215611d9057611d8f6127b0565b5b6000611d9e85828601611c7f565b925050602083013567ffffffffffffffff811115611dbf57611dbe6127ab565b5b611dcb85828601611c23565b9150509250929050565b6000611de18383611f8a565b905092915050565b6000611df5838361214d565b905092915050565b6000611e0983836121c3565b60208301905092915050565b611e1e816125af565b82525050565b611e2d816125af565b82525050565b6000611e3e826124b7565b611e488185612515565b935083602082028501611e5a85612487565b8060005b85811015611e965784840389528151611e778582611dd5565b9450611e82836124ee565b925060208a01995050600181019050611e5e565b50829750879550505050505092915050565b6000611eb3826124c2565b611ebd8185612526565b935083602082028501611ecf85612497565b8060005b85811015611f0b5784840389528151611eec8582611de9565b9450611ef7836124fb565b925060208a01995050600181019050611ed3565b50829750879550505050505092915050565b6000611f28826124cd565b611f328185612537565b9350611f3d836124a7565b8060005b83811015611f6e578151611f558882611dfd565b9750611f6083612508565b925050600181019050611f41565b5085935050505092915050565b611f84816125c1565b82525050565b6000611f95826124d8565b611f9f8185612548565b9350611faf818560208601612606565b611fb8816127b5565b840191505092915050565b6000611fce826124e3565b611fd88185612559565b9350611fe8818560208601612606565b611ff1816127b5565b840191505092915050565b6000612007826124e3565b612011818561256a565b9350612021818560208601612606565b61202a816127b5565b840191505092915050565b600061204260608361256a565b915061204d826127c6565b606082019050919050565b600061206560268361256a565b91506120708261283b565b604082019050919050565b600061208860278361256a565b91506120938261288a565b604082019050919050565b60006120ab60658361256a565b91506120b6826128d9565b608082019050919050565b60006120ce602a8361256a565b91506120d982612974565b604082019050919050565b60006120f1601b8361256a565b91506120fc826129c3565b602082019050919050565b600061211460208361256a565b915061211f826129ec565b602082019050919050565b600061213760768361256a565b915061214282612a15565b608082019050919050565b600060a083016000830151848203600086015261216a8282611fc3565b915050602083015161217f6020860182611e15565b5060408301516121926040860182611e15565b5060608301516121a560608601826121c3565b5060808301516121b860808601826121c3565b508091505092915050565b6121cc816125ed565b82525050565b6121db816125ed565b82525050565b60006020820190506121f66000830184611e24565b92915050565b600060208201905081810360008301526122168184611e33565b905092915050565b600060208201905081810360008301526122388184611ea8565b905092915050565b6000602082019050818103600083015261225a8184611f1d565b905092915050565b60006020820190506122776000830184611f7b565b92915050565b600060a08201905081810360008301526122978188611ffc565b90506122a66020830187611e24565b6122b36040830186611e24565b6122c060608301856121d2565b6122cd60808301846121d2565b9695505050505050565b600060208201905081810360008301526122f081612035565b9050919050565b6000602082019050818103600083015261231081612058565b9050919050565b600060208201905081810360008301526123308161207b565b9050919050565b600060208201905081810360008301526123508161209e565b9050919050565b60006020820190508181036000830152612370816120c1565b9050919050565b60006020820190508181036000830152612390816120e4565b9050919050565b600060208201905081810360008301526123b081612107565b9050919050565b600060208201905081810360008301526123d08161212a565b9050919050565b60006040820190506123ec60008301856121d2565b6123f960208301846121d2565b9392505050565b600061240a61241b565b9050612416828261266b565b919050565b6000604051905090565b600067ffffffffffffffff8211156124405761243f612772565b5b612449826127b5565b9050602081019050919050565b600067ffffffffffffffff82111561247157612470612772565b5b61247a826127b5565b9050602081019050919050565b6000819050602082019050919050565b6000819050602082019050919050565b6000819050602082019050919050565b600081519050919050565b600081519050919050565b600081519050919050565b600081519050919050565b600081519050919050565b6000602082019050919050565b6000602082019050919050565b6000602082019050919050565b600082825260208201905092915050565b600082825260208201905092915050565b600082825260208201905092915050565b600082825260208201905092915050565b600082825260208201905092915050565b600082825260208201905092915050565b6000612586826125ed565b9150612591836125ed565b9250828210156125a4576125a36126e5565b5b828203905092915050565b60006125ba826125cd565b9050919050565b60008115159050919050565b600073ffffffffffffffffffffffffffffffffffffffff82169050919050565b6000819050919050565b82818337600083830152505050565b60005b83811015612624578082015181840152602081019050612609565b83811115612633576000848401525b50505050565b6000600282049050600182168061265157607f821691505b6020821081141561266557612664612714565b5b50919050565b612674826127b5565b810181811067ffffffffffffffff8211171561269357612692612772565b5b80604052505050565b60006126a7826125ed565b91507fffffffffffffffffffffffffffffffffffffffffffffffffffffffffffffffff8214156126da576126d96126e5565b5b600182019050919050565b7f4e487b7100000000000000000000000000000000000000000000000000000000600052601160045260246000fd5b7f4e487b7100000000000000000000000000000000000000000000000000000000600052602260045260246000fd5b7f4e487b7100000000000000000000000000000000000000000000000000000000600052603260045260246000fd5b7f4e487b7100000000000000000000000000000000000000000000000000000000600052604160045260246000fd5b600080fd5b600080fd5b600080fd5b600080fd5b6000601f19601f8301169050919050565b7f4554482061646472657373206973206e6f74206120726567697374657265642060008201527f7075626c69636174696f6e2e20437265617465206f6e65206f7220686176652060208201527f61207075626c69736865722061646420796f7520746f20746865207465616d2e604082015250565b7f4f776e61626c653a206e6577206f776e657220697320746865207a65726f206160008201527f6464726573730000000000000000000000000000000000000000000000000000602082015250565b7f596f7520617265206e6f742074686520617574686f72206f662074686973206160008201527f727469636c652e00000000000000000000000000000000000000000000000000602082015250565b7f596f75206861766520616c726561647920617574686f72656420616e2061727460008201527f69636c652e205369676e20696e207769746820616e6f7468657220455448206160208201527f63636f756e7420746f206372656174652061207075626c69736865722061636360408201527f6f756e742e000000000000000000000000000000000000000000000000000000606082015250565b7f4163636f756e7420616c7265616479207265676973746572656420617320612060008201527f7075626c69736865722e00000000000000000000000000000000000000000000602082015250565b7f496e76616c6964204950465320686173682070726f76696465642e0000000000600082015250565b7f4f776e61626c653a2063616c6c6572206973206e6f7420746865206f776e6572600082015250565b7f596f75206e6f742061206d656d626572206f6620746865207075626c6963617460008201527f696f6e2e20436865636b20666f722061646472657373206572726f72732e204160208201527f736b207075626c69636174696f6e206f776e657220746f2061646420796f757260408201527f206164647265737320617320616e20617574686f722e00000000000000000000606082015250565b612ab9816125af565b8114612ac457600080fd5b50565b612ad0816125ed565b8114612adb57600080fd5b5056fea2646970667358221220e154fc67416e5926ef0537e025f25aa75a6d27a1887adc6f50d3f768cc0b204d64736f6c63430008070033",
  "immutableReferences": {},
  "source": "pragma solidity ^0.8.0;\n\nimport \"../client/node_modules/@openzeppelin/contracts/access/Ownable.sol\";\nimport \"../client/node_modules/@openzeppelin/contracts/utils/math/SafeMath.sol\";\n\n/// @title Main parent contract\n/// @author Griffin Sharp & Riley Campbell\n/// @notice TBD\n/// @dev TBD\ncontract Editor is Ownable {\n    // TO-DO: Remove any uint's not being used.\n    // Opitmize uintXXX for smaller values wherever possible (uint256 -> uint16)\n    using SafeMath for uint256;\n    using SafeMath for uint32;\n    using SafeMath for uint16;\n\n    // EVENTS ---\n    // Emitted when article is first created.\n    event ArticlePosted(\n        uint articleId,\n        uint timePosted,\n        address indexed authoraddress,\n        address indexed publicationAddress\n    );\n\n    // Emitted when article is updated.\n    event ArticleEdited(\n        uint articleId,\n        uint timeUpdated,\n        address indexed authorAddress,\n        address indexed publicationAddress\n    );\n\n    event publicationCreated(\n        uint publicationId,\n        uint timeCreated,\n        address indexed publicationAddress\n    );\n\n    struct Article {\n        string articleName;\n        address authorAddress;\n        address publicationAddress;\n        uint timePosted;\n        uint timeUpdated;\n    }\n\n    // VARIABLES ---\n    Article[] public articles;\n    address[] public publications;\n\n    // Mapping of articleId to IPFS hashes of the article.\n    mapping(uint => bytes[]) articleIdToHashes;\n    // Mapping of author address to the ids of each article they have authored.\n    mapping(address => uint[]) authorAddressToArticleIds;\n\n    // Mapping of publicationId to article ids.\n    mapping(uint => uint[]) publicationIdToArticleIds;\n    // Mapping of publicationId to approved authors.\n    mapping(address => address[]) publicationAddressToAuthors;\n\n    // MODIFIERS ---\n\n    // Checks to see if the caller is the author of the article.\n    modifier onlyAuthorOfArticle(uint _articleId) {\n        bool isAuthor = false;\n        uint[] memory authoredArticles = authorAddressToArticleIds[msg.sender];\n\n        for(uint i=0; i < authoredArticles.length; i++) {\n            if (authoredArticles[i] == _articleId) {\n                isAuthor = true;\n            }\n        }\n\n        require(isAuthor, \"You are not the author of this article.\");\n        _;\n    }\n\n    // Checks to see if the author has NOT created an article yet/still default value.\n    modifier isNotAnAuthor() {\n        require(authorAddressToArticleIds[msg.sender].length == 0, \"You have already authored an article. Sign in with another ETH account to create a publisher account.\");\n        _;\n    }\n\n    // Address provided is not a publication.\n    modifier isNotAPublisher(address _address) {\n        bool isNotPublisher = true;\n\n        for (uint i=0; i < publications.length; i++) {\n            if (_address == publications[i]) {\n                isNotPublisher = false;\n            }\n        }\n\n        require(isNotPublisher, \"Account already registered as a publisher.\");\n        _;\n    }\n\n    // Checks to see if the publicationId provided is registered or the 0x0 address (self-published).\n    modifier publicationValid(address _publicationAddress) {\n        bool isPublication = false;\n\n        if (_publicationAddress == address(0)) {\n            isPublication = true;\n        } else {\n            for (uint i=0; i < publications.length; i++) {\n                if (_publicationAddress == publications[i]) {\n                    isPublication = true;\n                }\n            }\n        }\n\n        require(isPublication, \"ETH address is not a registered publication. Create one or have a publisher add you to the team.\");\n        _;\n    }\n\n    // Checks if user calling the function is on the publication's approved author list\n    modifier isMemberOfPublication(address _publicationAddress) {\n        bool isMember = false;\n\n        if (_publicationAddress == address(0)) {\n            isMember = true;\n        } else {\n            address[] memory approvedAuthors = publicationAddressToAuthors[_publicationAddress];\n            if (approvedAuthors.length > 0) {\n                for (uint i=0; i < approvedAuthors.length; i++) {\n                    if (approvedAuthors[i] == msg.sender) {\n                        isMember = true;\n                    }\n                }\n            }\n        }\n\n        require(isMember, \"You not a member of the publication. Check for address errors. Ask publication owner to add your address as an author.\");\n        _;\n    }\n\n    // TO-DO:\n    // Validates IPFS hash\n    modifier isValidHash(bytes memory _ipfsHash) {\n        require(true, \"Invalid IPFS hash provided.\");\n        _;\n    }\n\n    // EXTERNAL FUNCTIONS ---\n    /// @notice Getter function for the articles.\n    /// @dev Returns the public 'articles' variable. Called by frontend (external).\n    /// @return Array of all articles.\n    function getArticles() external view returns(Article[] memory) {\n        return articles;\n    }\n\n    /// @notice Getter function for authorAddressToArticleIds mapping.\n    /// @dev Called by frontend (external).\n    /// @return Array of all articles.\n    function getArticleIdsFromAuthorAddress(address _authorAddress) external view returns(uint[] memory) {\n        return authorAddressToArticleIds[_authorAddress];\n    }\n\n    /// @notice Getter function for articleIdToHashes mapping.\n    /// @dev Called by frontend (external).\n    /// @return Array of all the hashes (versions) of an article.\n    function getHashesFromArticleId(uint _articleId) external view returns(bytes[] memory) {\n        return articleIdToHashes[_articleId];\n    }\n\n    // PUBLIC FUNCTIONS ---\n    /// @notice Adds an author to a publication's approved authors. Can only be called by a publication.\n    /// @dev We only check if its a publication, not a specific publication, since we use msg.sender to add to the authors array. Only adds non-publishers.\n    /// @param _authorAddress The address of the author to be added.\n    function addAuthorToPublication(address _authorAddress) public publicationValid(msg.sender) isNotAPublisher(_authorAddress) {\n        publicationAddressToAuthors[msg.sender].push(_authorAddress);\n    }\n\n    /// @notice Creates a publisher account.\n    /** @dev Checks for if a user is already reigstered as a publisher AND if they haven't authored an article yet.\n    Checks authorAddressToArticleIds and loops though publishers. There is no createAuthor or authors array to save authors gas. */\n    function createPublication() public isNotAPublisher(msg.sender) isNotAnAuthor {\n        publications.push(msg.sender);\n        uint id = publications.length.sub(1);\n        emit publicationCreated({\n            publicationId: id,\n            timeCreated: block.timestamp,\n            publicationAddress: msg.sender\n        });\n    }\n\n    /// @notice Posts a new article to IPFS\n    /// @dev Checks if user is a member of the publication. UI should tell user to use 0x0 address if self-published or to create their own publisher account.\n    /// @param _articleHash IPFS hash of text written by the author\n    /// @param _publicationAddress Address of the publication\n    function postArticle(\n        bytes memory _articleHash,\n        string memory _articleName,\n        address _publicationAddress\n    )\n        public\n        isNotAPublisher(msg.sender)\n        isMemberOfPublication(_publicationAddress)\n        isValidHash(_articleHash)\n        publicationValid(_publicationAddress)\n    {\n        // TO-DO: Run modifier to check for valid hash\n\n        Article memory newArticle = Article({\n            articleName: _articleName,\n            authorAddress: msg.sender,\n            publicationAddress: _publicationAddress,\n            timePosted: block.timestamp,\n            timeUpdated: 0\n        });\n\n        articles.push(newArticle);\n        uint256 articleId = (articles.length).sub(1);\n\n        _addArticleHash(articleId, _articleHash);\n        authorAddressToArticleIds[msg.sender].push(articleId);\n\n        emit ArticlePosted(articleId, block.timestamp, msg.sender, _publicationAddress);\n    }\n\n    /// @notice Removes author from a publication's approved authors. Can only be called by publication.\n    /** @dev Use the return value (bool) to display on the UI a success or failure message. Remove return val if not necessary.\n    Delete inserts the default value back, so it will be 0x0. May have to filter this out on the FE. */\n    /// @param _authorAddress The address of the author to be removed.\n    /// @return Returns true is successfully removed. False is not removed.\n    function removeAuthorFromPublication(address _authorAddress) public publicationValid(msg.sender) returns(bool) {\n        address[] storage authorsArray = publicationAddressToAuthors[msg.sender];\n        for (uint i=0; i < authorsArray.length; i++) {\n            if (authorsArray[i] == _authorAddress) {\n                delete authorsArray[i];\n                return true;\n            }\n        }\n\n        return false;\n    }\n\n    /// @notice Updates an article already uploaded to IPFS by adding new hash\n    /** @dev Only the author may call this fn. Right now, isMemberOfPublication only runs on creation (not on update).\n    Debating adding it here to prevent rogue ex-official authors from sabotage editing, but I also want authors to have full autonomy over their work. */\n    /// @param _articleId The id of the article being updated\n    /// @param _articleHash The hash of the new version of the article's text\n    function updateArticle(uint _articleId, bytes memory _articleHash) public onlyAuthorOfArticle(_articleId) isValidHash(_articleHash) {\n        _addArticleHash(_articleId, _articleHash);\n        emit ArticleEdited(_articleId, block.timestamp, msg.sender, articles[_articleId].publicationAddress);\n    }\n\n    /// @notice View function that checks if the current user is a publisher account.\n    /// @dev Used via UI ONLY. Use modifiers for function checks.\n    /// @return True if publisher account. False is not.\n    function isRegisteredPublisher() public view returns(bool) {\n        for (uint i=0; i < publications.length; i++) {\n            if (msg.sender == publications[i]) {\n                return true;\n            }\n        }\n\n        return false;\n    }\n\n    // PRIVATE FUNCTIONS ---\n    /// @notice Updates an article already uploaded to IPFS.\n    /// @dev\n    /// @param _articleId The id of the article\n    /// @param _articleHash The hash of the article's text\n    function _addArticleHash(uint _articleId, bytes memory _articleHash) private {\n        articleIdToHashes[_articleId].push(_articleHash);\n    }\n}\n",
  "sourcePath": "/Users/griff/Desktop/ipfs-journal/contracts/Editor.sol",
  "compiler": {
    "name": "solc",
    "version": "0.8.7+commit.e28d00a7.Emscripten.clang"
  },
  "schemaVersion": "3.4.1",
  "updatedAt": "2021-08-14T23:41:17.794Z",
  "networkType": "ethereum",
  "devdoc": {
    "author": "Griffin Sharp & Riley Campbell",
    "details": "TBD",
    "kind": "dev",
    "methods": {
      "addAuthorToPublication(address)": {
        "details": "We only check if its a publication, not a specific publication, since we use msg.sender to add to the authors array. Only adds non-publishers.",
        "params": {
          "_authorAddress": "The address of the author to be added."
        }
      },
      "createPublication()": {
        "details": "Checks for if a user is already reigstered as a publisher AND if they haven't authored an article yet. Checks authorAddressToArticleIds and loops though publishers. There is no createAuthor or authors array to save authors gas. "
      },
      "getArticleIdsFromAuthorAddress(address)": {
        "details": "Called by frontend (external).",
        "returns": {
          "_0": "Array of all articles."
        }
      },
      "getArticles()": {
        "details": "Returns the public 'articles' variable. Called by frontend (external).",
        "returns": {
          "_0": "Array of all articles."
        }
      },
      "getHashesFromArticleId(uint256)": {
        "details": "Called by frontend (external).",
        "returns": {
          "_0": "Array of all the hashes (versions) of an article."
        }
      },
      "isRegisteredPublisher()": {
        "details": "Used via UI ONLY. Use modifiers for function checks.",
        "returns": {
          "_0": "True if publisher account. False is not."
        }
      },
      "owner()": {
        "details": "Returns the address of the current owner."
      },
      "postArticle(bytes,string,address)": {
        "details": "Checks if user is a member of the publication. UI should tell user to use 0x0 address if self-published or to create their own publisher account.",
        "params": {
          "_articleHash": "IPFS hash of text written by the author",
          "_publicationAddress": "Address of the publication"
        }
      },
      "removeAuthorFromPublication(address)": {
        "params": {
          "_authorAddress": "The address of the author to be removed."
        },
        "returns": {
          "_0": "Returns true is successfully removed. False is not removed."
        }
      },
      "renounceOwnership()": {
        "details": "Leaves the contract without owner. It will not be possible to call `onlyOwner` functions anymore. Can only be called by the current owner. NOTE: Renouncing ownership will leave the contract without an owner, thereby removing any functionality that is only available to the owner."
      },
      "transferOwnership(address)": {
        "details": "Transfers ownership of the contract to a new account (`newOwner`). Can only be called by the current owner."
      },
      "updateArticle(uint256,bytes)": {
        "params": {
          "_articleHash": "The hash of the new version of the article's text",
          "_articleId": "The id of the article being updated"
        }
      }
    },
    "title": "Main parent contract",
    "version": 1
  },
  "userdoc": {
    "kind": "user",
    "methods": {
      "addAuthorToPublication(address)": {
        "notice": "Adds an author to a publication's approved authors. Can only be called by a publication."
      },
      "getArticleIdsFromAuthorAddress(address)": {
        "notice": "Getter function for authorAddressToArticleIds mapping."
      },
      "getArticles()": {
        "notice": "Getter function for the articles."
      },
      "getHashesFromArticleId(uint256)": {
        "notice": "Getter function for articleIdToHashes mapping."
      },
      "isRegisteredPublisher()": {
        "notice": "View function that checks if the current user is a publisher account."
      },
      "postArticle(bytes,string,address)": {
        "notice": "Posts a new article to IPFS"
      }
    },
    "notice": "TBD",
    "version": 1
  }
}